:020000040000FA
:0400000007EF00F016
:100008007382C6ED27F003EF27F04DC0D9FF4EC02D
:10001800DAFFDECFF6FFDDCFF7FF0800F550250A3F
:10002800D8A419EF00F01BEF00F0C1EF04F04DC0A9
:10003800D9FF4EC0DAFFDE2A000EDD22000E686E00
:10004800000E676E67C06BF068C06CF069686A681C
:10005800000E0001836F000E826F79EF00F06B8055
:100068004DC0D9FF4EC0DAFFDE2A000EDD2279EF3F
:1000780000F06B8234EF00F06B8434EF00F06B8695
:1000880034EF00F06B8834EF00F0000E836F010E40
:10009800826F79EF00F04DC0D9FF4EC0DAFFDECF96
:1000A800F6FFDDCFF7FF0800F550516E526A525047
:1000B800000AD8B462EF00F049EF00F05150200A6E
:1000C800D8B443EF00F0030AD8B446EF00F0080AAA
:1000D800D8B440EF00F0060AD8B433EF00F01D0A98
:1000E800D8B43DEF00F049EF00F082518311D8B445
:1000F80080EF00F082EF00F04FEF00F06BA087EF89
:1001080000F089EF00F08AEF00F06B924DC0D9FF44
:100118004EC0DAFFDECFF6FFDDCFF7FF0800F5505F
:100128002A0AD8A49AEF00F09CEF00F0C5EF00F07F
:100138004DC0D9FF4EC0DAFFDE2A000EDD224FC0C7
:10014800D9FF50C0DAFFDFCF51F0020EDE26DFCF35
:1001580052F0000EDD2251C0D9FF52C0DAFFDECFC7
:1001680067F0DDCF68F068BEBEEF00F0BCEF00F0CE
:1001780009EF01F06B80676C681ED8B0682A09EF38
:1001880001F04DC0D9FF4EC0DAFFDECF14F0DDCF4D
:1001980015F049EC1BF014C067F015C068F0DCEFEF
:1001A80000F04DC0D9FF4EC0DAFFDE2A000EDD2276
:1001B800D00E516EFF0E526E4DC0D9FF4EC0DAFF01
:1001C800DECFF6FFDDCFF7FF0800F550536E546A17
:1001D800515053265250542254500AE10A0E535C8F
:1001E800D8A0F9EF00F0FCEF00F0010EFDEF00F0F1
:1001F800000E0001846F856B84518511D8A407EF28
:1002080001F009EF01F0D5EF00F04DC0D9FF4EC065
:10021800DAFFDECFF6FFDDCFF7FF0800F550630AFF
:10022800D8A419EF01F01BEF01F042EF01F04DC027
:10023800D9FF4EC0DAFFDE2A000EDD224FC0D9FFFB
:1002480050C0DAFFDFCF51F0020EDE26DFCF52F0CA
:10025800000EDD2251C0D9FF52C0DAFFDF508E6F89
:100268004BC024F04CC025F08EC026F0D2EC29F00B
:1002780024C04BF025C04CF0DCEF04F04DC0D9FF92
:100288004EC0DAFFDECFF6FFDDCFF7FF0800F550EE
:10029800640AD8B452EF01F054EF01F066EF01F0B0
:1002A8004DC0D9FF4EC0DAFFDECFF6FFDDCFF7FF36
:1002B8000800F550690AD8A464EF01F066EF01F070
:1002C800A6EF01F04DC0D9FF4EC0DAFFDE2A000EBE
:1002D800DD224FC0D9FF50C0DAFFDFCF51F0020E48
:1002E800DE26DFCF52F0000EDD2251C0D9FF52C00A
:1002F800DAFFDECF86F0DDCF87F0000E87BFFF0E76
:10030800886F896F8A6F8B6F8C6F8D6F4BC027F0EA
:100318004CC028F086C029F087C02AF088C02BF08E
:1003280089C02CF08AC02DF08BC02EF08CC02FF025
:100338008DC030F09FEC11F027C04BF028C04CF076
:10034800DCEF04F04DC0D9FF4EC0DAFFDECF0DF070
:10035800DDCF0EF0ED0E0F6E7F0E106E000E126EDA
:10036800020E116E2EEC20F00D500E10D8B4BFEF17
:1003780001F0C1EF01F0DCEF01F04DC0D9FF4EC034
:10038800DAFFDECF0DF0DDCF0EF0F00E0F6E7F0E30
:10039800106E000E126E020E116E2EEC20F00D5033
:1003A8000E10D8A4DAEF01F0DCEF01F039EF02F01B
:1003B800020E4DC0D9FF4EC0DAFFDE26000EDD2248
:1003C8004FC0D9FF50C0DAFFDFCF51F0040EDE2650
:1003D800DFCF52F0000EDD2251C0D9FF52C0DAFF44
:1003E800DECF53F0DECF54F0DECF55F0DECF56F03F
:1003F80053C057F054C058F055C059F056C05AF081
:100408005B6A5ABE5B685BC05CF05BC05DF05BC05A
:100418005EF057C086F058C087F059C088F05AC0BF
:1004280089F05BC08AF05CC08BF05DC08CF05EC068
:100438008DF04BC027F04CC028F086C029F087C04B
:100448002AF088C02BF089C02CF08AC02DF08BC010
:100458002EF08CC02FF08DC030F09FEC11F027C02B
:100468004BF028C04CF0DCEF04F04DC0D9FF4EC073
:10047800DAFFDECFF6FFDDCFF7FF0800F550700A90
:10048800D8A449EF02F04BEF02F08FEF02F04DC015
:10049800D9FF4EC0DAFFDE2A000EDD224FC0D9FF99
:1004A80050C0DAFFDFCF51F0020EDE26DFCF52F068
:1004B800000EDD2251C0D9FF52C0DAFFDECF53F063
:1004C800DDCF54F053C08FF054C090F00001916B11
:1004D800926B936B946B956B966B4BC024F04CC0EE
:1004E80025F08FC026F090C027F091C028F092C068
:1004F80029F093C02AF094C02BF095C02CF096C038
:100508002DF0780E2E6E0EEC13F024C04BF025C0A3
:100518004CF0DCEF04F04DC0D9FF4EC0DAFFDECF5F
:10052800F6FFDDCFF7FF0800F550730AD8A49FEF58
:1005380002F0A1EF02F0CCEF02F04DC0D9FF4EC09F
:10054800DAFFDE2A000EDD224FC0D9FF50C0DAFFE5
:10055800DFCF51F0020EDE26DFCF52F0000EDD2293
:1005680051C0D9FF52C0DAFFDECF80F0DDCF81F075
:100578004BC012F04CC013F080C014F081C015F0CD
:100588007DEC1AF012C04BF013C04CF0DCEF04F015
:100598004DC0D9FF4EC0DAFFDECFF6FFDDCFF7FF43
:1005A8000800F550750AD8A4DCEF02F0DEEF02F07F
:1005B80020EF03F04DC0D9FF4EC0DAFFDE2A000E4F
:1005C800DD224FC0D9FF50C0DAFFDFCF51F0020E55
:1005D800DE26DFCF52F0000EDD2251C0D9FF52C017
:1005E800DAFFDECF53F0DDCF54F053C08FF054C0A4
:1005F80090F00001916B926B936B946B956B966B7B
:100608004BC026F04CC027F08FC028F090C029F0CE
:1006180091C02AF092C02BF093C02CF094C02DF01A
:1006280095C02EF096C02FF0CEEC16F026C04BF0F9
:1006380027C04CF0DCEF04F04DC0D9FF4EC0DAFF04
:10064800DECF0DF0DDCF0EF0F30E0F6E7F0E106EC5
:10065800000E126E020E116E2EEC20F00D500E10D0
:10066800D8A439EF03F03BEF03F084EF03F0020E58
:100678004DC0D9FF4EC0DAFFDE26000EDD224FC086
:10068800D9FF50C0DAFFDFCF51F0040EDE26DFCFEE
:1006980052F0000EDD2251C0D9FF52C0DAFFDECF82
:1006A80053F0DECF54F0DECF55F0DECF56F0535086
:1006B80000018F6F5450906F5550916F5650926F44
:1006C800936B946B956B966B4BC026F04CC027F0E0
:1006D8008FC028F090C029F091C02AF092C02BF06A
:1006E80093C02CF094C02DF095C02EF096C02FF03A
:1006F800CEEC16F026C04BF027C04CF0DCEF04F02F
:100708004DC0D9FF4EC0DAFFDECFF6FFDDCFF7FFD1
:100718000800F550780AD8B494EF03F096EF03F088
:10072800A8EF03F04DC0D9FF4EC0DAFFDECFF6FFC9
:10073800DDCFF7FF0800F550580AD8A4A6EF03F05C
:10074800A8EF03F0F7EF03F04DC0D9FF4EC0DAFF72
:10075800DECFF6FFDDCFF7FF0800F5CF8EF04DC0F6
:10076800D9FF4EC0DAFFDE2A000EDD224FC0D9FFC6
:1007780050C0DAFFDFCF51F0020EDE26DFCF52F095
:10078800000EDD2251C0D9FF52C0DAFFDECF53F090
:10079800DDCF54F053C08FF054C090F00001916B3E
:1007A800926B936B946B956B966B4BC024F04CC01B
:1007B80025F08FC026F090C027F091C028F092C095
:1007C80029F093C02AF094C02BF095C02CF096C065
:1007D8002DF08EC02EF00EEC13F024C04BF025C087
:1007E8004CF0DCEF04F04DC0D9FF4EC0DAFFDECF8D
:1007F8000DF0DDCF0EF0F60E0F6E7F0E106E000EB0
:10080800126E020E116E2EEC20F00D500E10D8B4A0
:1008180010EF04F012EF04F02DEF04F04DC0D9FFF3
:100828004EC0DAFFDECF0DF0DDCF0EF0EA0E0F6E10
:100838007F0E106E000E126E020E116E2EEC20F05E
:100848000D500E10D8A42BEF04F02DEF04F08BEF11
:1008580004F04DC0D9FF4EC0DAFFDECF51F0DDCF36
:1008680052F0010E5126000E522251C0F6FF52C01E
:10087800F7FF0800F5CF8EF0020E4DC0D9FF4EC02D
:10088800DAFFDE26000EDD224FC0D9FF50C0DAFFA6
:10089800DFCF51F0040EDE26DFCF52F0000EDD224E
:1008A80051C0D9FF52C0DAFFDECF53F0DECF54F08B
:1008B800DECF55F0DECF56F0535000018F6F545005
:1008C800906F5550916F5650926F936B946B956BD8
:1008D800966B4BC024F04CC025F08FC026F090C01A
:1008E80027F091C028F092C029F093C02AF094C054
:1008F8002BF095C02CF096C02DF08EC02EF00EEC8B
:1009080013F024C04BF025C04CF0DCEF04F04DC0D0
:10091800D9FF4EC0DAFFDECFF6FFDDCFF7FF0800C4
:10092800F550250AD8A49BEF04F09DEF04F0B4EF2E
:1009380004F04DC0D9FF4EC0DAFFDE2A000EDD22DA
:10094800000E0F6E250E0E6E4BC010F04CC011F04D
:1009580013EC2CF0000E4C6E010E4B6EDCEF04F025
:100968004DC0D9FF4EC0DAFFDE2A000EDD22000E90
:100978004C6E000E4B6EDCEF04F04DC0D9FF4EC03C
:10098800DAFFDECFF6FFDDCFF7FF0800F5500E6E79
:100998000F6A4BC010F04CC011F013EC2CF04DC096
:1009A800D9FF4EC0DAFFDE2A000EDD22AEEF04F0DA
:1009B80012003AEC2CF00D500E10D8B4E6EF04F00B
:1009C800E8EF04F008EF08F078EC2AF00DC014F214
:1009D8000EC015F20D0E020114191511D8B4F7EF57
:1009E80004F0F9EF04F005EF05F00001F55109E115
:1009F8000A0EF45DD8A003EF05F005EF05F0A4EFAB
:100A080007F0000E136E0A0E126E4BEC2CF0DD0E82
:100A18000D6E010E0E6ED40E0F6E7F0E106E000E50
:100A2800126E040E116E2EEC20F00D500E10D8A48C
:100A380020EF05F022EF05F080EF05F02F0E010101
:100A4800E16529EF05F02BEF05F03EEF05F03A0ED2
:100A5800E16131EF05F033EF05F03EEF05F0D00E20
:100A6800E1250001D76FD86BFF0ED8236EEC2BF071
:100A780089EF07F0600EE16544EF05F046EF05F0F9
:100A880059EF05F0670EE1614CEF05F04EEF05F008
:100A980059EF05F0A90EE1250001D76FD86BFF0EBD
:100AA800D8236EEC2BF089EF07F0400EE1655FEF7D
:100AB80005F061EF05F074EF05F0470EE16167EFAF
:100AC80005F069EF05F074EF05F0C90EE1250001A6
:100AD800D76FD86BFF0ED8236EEC2BF089EF07F099
:100AE800CB0E0001976F7D0E986FE1C199F09A6B5C
:100AF800FFEC2BF089EF07F0DD0E0D6E010E0E6E88
:100B0800C80E0F6E7F0E106E000E126E050E116E5F
:100B18002EEC20F00D500E10D8A495EF05F097EFAD
:100B280005F0D6EF05F02F0E0101E2659EEF05F006
:100B3800A0EF05F0CAEF05F0340EE261A6EF05F06C
:100B4800A8EF05F0CAEF05F0D00EE2250001E96F25
:100B5800EA6BFF0EEA23860ECF6F010ED06FEBC053
:100B6800D1F0E9C0D2F0000ED46F010ED36FE0ECE3
:100B780024F0560E0001976F7F0E986FE9C099F028
:100B8800EAC09AF0FFEC2BF089EF07F0AA0E0001FB
:100B9800976F7D0E986FE2C199F09A6BFFEC2BF07E
:100BA80089EF07F0DD0E0D6E010E0E6ED90E0F6E79
:100BB8007F0E106E000E126E050E116E2EEC20F0D8
:100BC8000D500E10D8A4EBEF05F0EDEF05F047EF50
:100BD80006F0F30E116E790E126E10EC29F011C0AA
:100BE80017F012C018F0E7EC2AF017C012F218C07C
:100BF80013F2020113BF03EF06F005EF06F015EF3D
:100C080006F012C20DF013C20EF0000E106E0A0E9E
:100C18000F6E88EC24F00DC008F20EC009F22CEF1C
:100C280006F012C2D9F013C2DAF00001D91FDA1F98
:100C3800D94BDA2BD9C00DF0DAC00EF0000E106EC9
:100C48000A0E0F6E88EC24F00DC008F20EC009F2EF
:100C58007F0E0001976F7E0E986F12C20DF013C2BF
:100C68000EF0000E106E0A0E0F6E6BEC23F00DC026
:100C780099F00EC09AF008C29BF009C29CF0FFECF4
:100C88002BF089EF07F0DD0E0D6E010E0E6EE60EED
:100C98000F6E7F0E106E000E126E040E116E2EEC8B
:100CA80020F00D500E10D8A45CEF06F05EEF06F0B1
:100CB8009CEF06F0EE0E306E790E316E72EC28F075
:100CC80030C00EF231C00FF232C010F233C011F250
:100CD8000EC223F00FC224F010C225F011C226F074
:100CE800400E276E9C0E286E000E296E000E2A6E8E
:100CF80089EC25F0B00E23240201006FFF0E24209A
:100D0800016FFF0E2520026FFF0E2620036F760E5F
:100D18000001976F7F0E986F00C299F001C29AF098
:100D280002C29BF003C29CF0FFEC2BF089EF07F0A6
:100D3800DD0E0D6E010E0E6EE20E0F6E7F0E106E42
:100D4800000E126E040E116E2EEC20F00D500E10D7
:100D5800D8A4B1EF06F0B3EF06F0F1EF06F0E90E14
:100D6800306E790E316E72EC28F030C00EF231C060
:100D78000FF232C010F233C011F20EC223F00FC2CC
:100D880024F010C225F011C226F0400E276E9C0EEA
:100D9800286E000E296E000E2A6E89EC25F0B00E22
:100DA80023240201046FFF0E2420056FFF0E252067
:100DB800066FFF0E2620076F660E0001976F7F0EE5
:100DC800986F04C299F005C29AF006C29BF007C258
:100DD8009CF0FFEC2BF089EF07F0DD0E0D6E010E95
:100DE8000E6ECE0E0F6E7F0E106E000E126E060E79
:100DF800116E2EEC20F00D500E10D8A406EF07F05F
:100E080008EF07F082EF07F0E40E306E790E316ECE
:100E180072EC28F0D89030340001D96F3134DA6F91
:100E28003234DB6F3334DC6F880ED92502010E6F44
:100E3800130E0001DA2102010F6F000E0001DB2101
:100E48000201106F000E0001DC210201116F0EC2B9
:100E580023F00FC224F010C225F011C226F0100EA4
:100E6800276E270E286E000E296E000E2A6E89EC5A
:100E780025F023C00AF224C00BF225C00CF226C0CC
:100E88000DF22D0E0001976F7E0E986F0AC223F0A7
:100E98000BC224F00CC225F00DC226F0640E276E9A
:100EA800000E286E000E296E000E2A6E89EC25F0C1
:100EB80023C099F024C09AF025C09BF026C09CF06E
:100EC8000AC20DF00BC20EF00CC20FF00DC210F0EA
:100ED800640E116E000E126E000E136E000E146E6C
:100EE800BFEC26F00DC09DF00EC09EF00FC09FF025
:100EF80010C0A0F0FFEC2BF089EF07F0220E0001E4
:100F0800976F7F0E986FFFEC2BF0DD0E0D6E010EC4
:100F18000E6E000E106E000E0F6EF4C011F0F5C0CC
:100F280012F0D5EC1CF0000E0001F56F000EF46F06
:100F3800C20E976F7F0E986FFFEC2BF008EF08F04A
:100F4800080E020114191511D8A4ADEF07F0AFEF80
:100F580007F0D0EF07F00001F5BFBBEF07F0F55140
:100F680008E1F405D8A0BBEF07F0BDEF07F008EFE4
:100F780008F0F407D8A0F507DD0EF425D96E010EA8
:100F8800F521DA6E000EDF6EDE0E976F7F0E986F1A
:100F9800FFEC2BF008EF08F0DD0E0001F425D96E08
:100FA800010EF521DA6E14C2DFFFF44BF52B0201B6
:100FB80015BFE8EF07F0155109E1200E145DD8A020
:100FC800E8EF07F0EAEF07F000EF08F015BFF8EFD9
:100FD80007F0155107E1800E145DD8B0F6EF07F061
:100FE800F8EF07F000EF08F014C212F015C213F082
:100FF8004BEC2CF008EF08F0000E136E2E0E126E5C
:101008004BEC2CF008EF08F01200BBC0D9FFBCC0B5
:10101800DAFFDE50DE10D8B414EF08F016EF08F04F
:1010280062EF0AF0020E0001C96F000ECA6F000ECF
:10103800CB6F000ECC6F20EE18F0BB51D926BC51F7
:10104800DA22DF50BD6F010EBD17BDC0BEF0BF6B09
:10105800C06BC16B030ED890BE37BF37C037C137DE
:10106800E82E2FEF08F0BE51C913BF51CA13C05163
:10107800CB13C151CC1320EE17F0BB51D926BC516C
:10108800DA22DF50BD6F010EBD17BDC0BEF0BF6BC9
:10109800C06BC16B040ED890BE37BF37C037C1379D
:1010A800E82E4FEF08F0BE51C913BF51CA13C05103
:1010B800CB13C151CC1320EE16F0BB51D926BC512D
:1010C800DA22DF50BD6F010EBD17BDC0BEF0BF6B89
:1010D800C06BC16B050ED890BE37BF37C037C1375C
:1010E800E82E6FEF08F0BE51C913BF51CA13C051A3
:1010F800CB13C151CC1320EE15F0BB51D926BC51EE
:10110800DA22DF50BD6F010EBD17BDC0BEF0BF6B48
:10111800C06BC16B060ED890BE37BF37C037C1371A
:10112800E82E8FEF08F0BE51C913BF51CA13C05142
:10113800CB13C151CC1320EE14F0BB51D926BC51AE
:10114800DA22DF50BD6F010EBD17BDC0BEF0BF6B08
:10115800C06BC16B070ED890BE37BF37C037C137D9
:10116800E82EAFEF08F0BE51C913BF51CA13C051E2
:10117800CB13C151CC1320EE13F0BB51D926BC516F
:10118800DA22DF50BD6F010EBD17BDC0BEF0BF6BC8
:10119800C06BC16BC0C0C1F0BFC0C0F0BEC0BFF063
:1011A800BE6BBE51C913BF51CA13C051CB13C15135
:1011B800CC1320EE12F0BB51D926BC51DA22DF50F5
:1011C800BD6F0F0EBD17BDC0BEF0BF6BC06BC16B4E
:1011D800090ED890BE37BF37C037C137E82EEDEFBC
:1011E80008F0BE51C913BF51CA13C051CB13C15126
:1011F800CC1320EE11F0BB51D926BC51DA22DF50B6
:10120800BD6F010EBD17BDC0BEF0BF6BC06BC16B1B
:101218000D0ED890BE37BF37C037C137E82E0DEF57
:1012280009F0BE51C913BF51CA13C051CB13C151E4
:10123800CC1320EE0FF0BB51D926BC51DA22DECFF9
:10124800BDF0DDCFBEF0FF0EBD15BF6F030EBE159E
:10125800C06FC16BC26B0E0ED890BF37C037C13795
:10126800C237E82E30EF09F0BF51C913C051CA1375
:10127800C151CB13C251CC1320EE0EF0BB51D9266D
:10128800BC51DA22DF50BD6F010EBD17BDC0BEF0E4
:10129800BF6BC06BC16BBEC0C1F0C06BBF6BBE6B18
:1012A800BE51C913BF51CA13C051CB13C151CC137E
:1012B80020EE0DF0BB51D926BC51DA22DF50BD6FAC
:1012C800010EBD17BDC0BEF0BF6BC06BC16B190E60
:1012D800D890BE37BF37C037C137E82E6CEF09F05A
:1012E800BE51C913BF51CA13C051CB13C151CC133E
:1012F80020EE0CF0BB51D926BC51DA22DF50BD6F6D
:10130800070EBD17BDC0BEF0BF6BC06BC16B1A0E18
:10131800D890BE37BF37C037C137E82E8CEF09F0F9
:10132800BE51C913BF51CA13C051CB13C151CC13FD
:1013380020EE0BF0BB51D926BC51DA22DF50BD6F2D
:10134800030EBD17BDC0BEF0BF6BC06BC16B1D0ED9
:10135800D890BE37BF37C037C137E82EACEF09F099
:10136800BE51C913BF51CA13C051CB13C151CC13BD
:10137800B20E976F7A0E986FC9C099F0CAC09AF0EA
:10138800CBC09BF0CCC09CF020EE0BF0BB51D92613
:10139800BC51DA22DF50BD6FBD519D6F9E6B20EEB0
:1013A8000CF0BB51D926BC51DA22DF50BE6FBE51BA
:1013B8009F6FA06B20EE0DF0BB51D926BC51DA22ED
:1013C800DF50BF6FBF51A16FA26B20EE0EF0BB5173
:1013D800D926BC51DA22DF50C06FC051A36FA46B6D
:1013E80020EE0FF0BB51D926BC51DA22DECFA5F092
:1013F800DDCFA6F020EE11F0BB51D926BC51DA2280
:10140800DF50C16FC151A76FA86B20EE12F0BB511E
:10141800D926BC51DA22DF50C26FC251A96FAA6B1C
:1014280020EE13F0BB51D926BC51DA22DF50C36F2E
:10143800C351AB6FAC6B20EE14F0BB51D926BC5135
:10144800DA22DF50C46FC451AD6FAE6B20EE15F0D9
:10145800BB51D926BC51DA22DF50C56FC551AF6FD9
:10146800B06B20EE16F0BB51D926BC51DA22DF5002
:10147800C66FC651B16FB26B20EE17F0BB51D926BB
:10148800BC51DA22DF50C76FC751B36FB46B20EE7F
:1014980018F0BB51D926BC51DA22DF50C86FC851A9
:1014A800B56FB66BFFEC2BF0C9C00DF0CAC00EF0DB
:1014B800CBC00FF0CCC010F0C6EC18F012000F0E25
:1014C800C1121A0EF66E7A0EF76E0800F5CF0DF0FF
:1014D800180EF66E7A0EF76E0900F5CFD9FF0900DF
:1014E800F5CFDAFF0D50DF12150EF66E7A0EF76E95
:1014F8000800F550FF0A0D6E110EF66E7A0EF76EA3
:101508000900F5CF0EF00900F5CF0FF00EC0D9FF96
:101518000FC0DAFF0D50DF16150EF66E7A0EF76E55
:101528000800F550FF0A0D6E130EF66E7A0EF76E70
:101538000900F5CFD9FF0900F5CFDAFF0D50DF1606
:10154800100EF66E7A0EF76E0800F550FF0A0D6E53
:101558000C0EF66E7A0EF76E0900F5CF0EF0090044
:10156800F5CF0FF00EC0D9FF0FC0DAFF0D50DF1610
:10157800100EF66E7A0EF76E0800F550FF0A0D6E23
:101588000E0EF66E7A0EF76E0900F5CFD9FF090038
:10159800F5CFDAFF0D50DF160B0EF66E7A0EF76EEA
:1015A8000800F550FF0A0D6E070EF66E7A0EF76EFC
:1015B8000900F5CF0EF00900F5CF0FF00EC0D9FFE6
:1015C8000FC0DAFF0D50DF160B0EF66E7A0EF76EAF
:1015D8000800F550FF0A0D6E090EF66E7A0EF76ECA
:1015E8000900F5CFD9FF0900F5CFDAFF0D50DF1656
:1015F800060EF66E7A0EF76E0800F550FF0A0D6EAD
:10160800020EF66E7A0EF76E0900F5CF0EF009009D
:10161800F5CF0FF00EC0D9FF0FC0DAFF0D50DF165F
:10162800060EF66E7A0EF76E0800F550FF0A0D6E7C
:10163800040EF66E7A0EF76E0900F5CFD9FF090091
:10164800F5CFDAFF0D50DF16010EF66E7A0EF76E43
:101658000800F5CF0DF0FF0EF66E790EF76E090053
:10166800F5CFD9FF0900F5CFDAFF0D50DF12010ED3
:10167800F66E7A0EF76E0800F5CF0DF0FD0EF66ED9
:10168800790EF76E0900F5CF0EF00900F5CF0FF0CF
:101698000EC0D9FF0FC0DAFF0D50DF12FC0EF66E38
:1016A800790EF76E0800F5CF0DF0FA0EF66E790E8A
:1016B800F76E0900F5CFD9FF0900F5CFDAFF0D5015
:1016C800DF12FC0EF66E790EF76E0800F5CF0DF0FE
:1016D800F80EF66E790EF76E0900F5CF0EF00900D8
:1016E800F5CF0FF00EC0D9FF0FC0DAFF0D50DF1293
:1016F800F19EE30EF66E790EF76E0800F5CF0DF049
:10170800E10EF66E790EF76E0900F5CFD9FF0900E4
:10171800F5CFDAFF0D50DF12E30EF66E790EF76E95
:101728000800F5CF0DF0DF0EF66E790EF76E0900A2
:10173800F5CF0EF00900F5CF0FF00EC0D9FF0FC09E
:10174800DAFF0D50DF12DE0EF66E790EF76E080026
:10175800F5CF0DF0DC0EF66E790EF76E0900F5CFB9
:10176800D9FF0900F5CFDAFF0D50DF12DE0EF66E55
:10177800790EF76E0800F5CF0DF0DA0EF66E790ED9
:10178800F76E0900F5CF0EF00900F5CF0FF00EC087
:10179800D9FF0FC0DAFF0D50DF12D90EF66E790EA1
:1017A800F76E0800F550FF0A0D6ED50EF66E790E2D
:1017B800F76E0900F5CF0EF00900F5CF0FF00EC057
:1017C800D9FF0FC0DAFF0D50DF16D90EF66E790E6D
:1017D800F76E0800F550FF0A0D6ED70EF66E790EFB
:1017E800F76E0900F5CFD9FF0900F5CFDAFF0D50E4
:1017F800DF16D40EF66E790EF76E0800F550FF0A64
:101808000D6ED00EF66E790EF76E0900F5CF0EF05C
:101818000900F5CF0FF00EC0D9FF0FC0DAFF0D5049
:10182800DF16D40EF66E790EF76E0800F550FF0A33
:101838000D6ED20EF66E790EF76E0900F5CFD9FF50
:101848000900F5CFDAFF0D50DF16CA0EF66E790ED5
:10185800F76E0800F550FF0A0D6EC60EF66E790E8B
:10186800F76E0900F5CF0EF00900F5CF0FF00EC0A6
:10187800D9FF0FC0DAFF0D50DF16CA0EF66E790ECB
:10188800F76E0800F550FF0A0D6EC80EF66E790E59
:10189800F76E0900F5CFD9FF0900F5CFDAFF0D5033
:1018A800DF16CF0EF66E790EF76E0800F5CF0DF045
:1018B800CB0EF66E790EF76E0900F5CF0EF0090023
:1018C800F5CF0FF00EC0D9FF0FC0DAFF0D50DF12B1
:1018D800CF0EF66E790EF76E0800F550FF0A0D6E02
:1018E800CD0EF66E790EF76E0900F5CFD9FF090017
:1018F800F5CFDAFF0D50DF16C00EF66E790EF76ED3
:101908000800F5CF0DF0BE0EF66E790EF76E0900E1
:10191800F5CFD9FF0900F5CFDAFF0D50DF12BB0E66
:10192800F66E790EF76E0800F5CF0DF0B90EF66E6B
:10193800790EF76E0900F5CFD9FF0900F5CFDAFF68
:101948000D50DF121200BBC0D9FFBCC0DAFFDE5059
:10195800DE10D8B4B2EF0CF0B4EF0CF07FEF0EF05D
:10196800040E0001C76F000EC86F000EC96F000E8D
:10197800CA6F20EE29F0BB51D926BC51DA22DF50BC
:10198800BD6F030EBD17BDC0BEF0BF6BC06BC16B92
:10199800030ED890BE37BF37C037C137E82ECDEF1A
:1019A8000CF0BE51C713BF51C813C051C913C15160
:1019B800CA1320EE28F0BB51D926BC51DA22DF50D9
:1019C800BD6F010EBD17BDC0BEF0BF6BC06BC16B54
:1019D800050ED890BE37BF37C037C137E82EEDEFB8
:1019E8000CF0BE51C713BF51C813C051C913C15120
:1019F800CA1320EE27F0BB51D926BC51DA22DF509A
:101A0800BD6F030EBD17BDC0BEF0BF6BC06BC16B11
:101A1800060ED890BE37BF37C037C137E82E0DEF56
:101A28000DF0BE51C713BF51C813C051C913C151DE
:101A3800CA1320EE26F0BB51D926BC51DA22DF505A
:101A4800BD6F010EBD17BDC0BEF0BF6BC06BC16BD3
:101A5800C0C0C1F0BFC0C0F0BEC0BFF0BE6BBE51B9
:101A6800C713BF51C813C051C913C151CA1320EEBF
:101A780025F0BB51D926BC51DA22DF50BD6F010ECB
:101A8800BD17BDC0BEF0BF6BC06BC16B090ED8904F
:101A9800BE37BF37C037C137E82E4BEF0DF0BE5108
:101AA800C713BF51C813C051C913C151CA1320EE7F
:101AB80024F0BB51D926BC51DA22DF50BD6F010E8C
:101AC800BD17BDC0BEF0BF6BC06BC16B0A0ED8900E
:101AD800BE37BF37C037C137E82E6BEF0DF0BE51A8
:101AE800C713BF51C813C051C913C151CA1320EE3F
:101AF80023F0BB51D926BC51DA22DF50BD6F010E4D
:101B0800BD17BDC0BEF0BF6BC06BC16B0B0ED890CC
:101B1800BE37BF37C037C137E82E8BEF0DF0BE5147
:101B2800C713BF51C813C051C913C151CA1320EEFE
:101B380022F0BB51D926BC51DA22DF50BD6FBDC09F
:101B4800BEF0BF6BC06BC16B0C0ED890BE37BF37F1
:101B5800C037C137E82EA9EF0DF0BE51C713BF51EA
:101B6800C813C051C913C151CA1320EE21F0BB518B
:101B7800D926BC51DA22DF50BD6F070EBD17BDC094
:101B8800BEF0BF6BC06BC16B140ED890BE37BF37A9
:101B9800C037C137E82EC9EF0DF0BE51C713BF518A
:101BA800C813C051C913C151CA1320EE20F0BB514C
:101BB800D926BC51DA22DF50BD6F010EBD17BDC05A
:101BC800BEF0BF6BC06BC16B170ED890BE37BF3766
:101BD800C037C137E82EE9EF0DF0BE51C713BF512A
:101BE800C813C051C913C151CA131B0E976F7A0E7F
:101BF800986FC7C099F0C8C09AF0C9C09BF0CAC016
:101C08009CF020EE20F0BB51D926BC51DA22DF50DF
:101C1800BD6FBD519D6F9E6B20EE21F0BB51D92643
:101C2800BC51DA22DF50BE6FBE519F6FA06B20EE11
:101C380022F0BB51D926BC51DA22DF50BF6FBF5109
:101C4800A16FA26B20EE23F0BB51D926BC51DA223A
:101C5800DF50C06FC051A36FA46B20EE24F0BB51BE
:101C6800D926BC51DA22DF50C16FC151A56FA66BCE
:101C780020EE25F0BB51D926BC51DA22DF50C26FC5
:101C8800C251A76FA86B20EE26F0BB51D926BC51D4
:101C9800DA22DF50C36FC351A96FAA6B20EE27F079
:101CA800BB51D926BC51DA22DF50C46FC451AB6F87
:101CB800AC6B20EE28F0BB51D926BC51DA22DF509C
:101CC800C56FC551AD6FAE6B20EE29F0BB51D9265B
:101CD800BC51DA22DF50C66FC651AF6FB06BFFEC54
:101CE8002BF0C7C00DF0C8C00EF0C9C00FF0CAC0B5
:101CF80010F0C6EC18F01200000120EE33F0BB51D2
:101D0800D926BC51DA22DECF23F0DECF24F0DECF95
:101D180025F0DECF26F020EE2FF0BB51D926BC519E
:101D2800DA22DECF27F0DECF28F0DECF29F0DECFB3
:101D38002AF089EC25F023C0C5F024C0C6F025C0E0
:101D4800C7F026C0C8F0000120EE33F0BB51D926F9
:101D5800BC51DA22DECF0DF0DECF0EF0DECF0FF071
:101D6800DECF10F020EE2FF0BB51D926BC51DA227D
:101D7800DECF11F0DECF12F0DECF13F0DECF14F09D
:101D8800BFEC26F00DC0BDF00EC0BEF00FC0BFF016
:101D980010C0C0F0700E0001976F7C0E986F20EE97
:101DA80033F0BB51D926BC51DA22DECF99F0DECF11
:101DB8009AF0DECF9BF0DECF9CF0C5C09DF0C6C088
:101DC8009EF0C7C09FF0C8C0A0F0BDC0A1F0BEC0C3
:101DD800A2F0BFC0A3F0C0C0A4F020EE2FF0BB510A
:101DE800D926BC51DA22DECFA5F0DECFA6F0DECFB1
:101DF800A7F0DECFA8F0FFEC2BF00001C851C71107
:101E0800C61109E1170EC55DD8A00DEF0FF00FEF51
:101E18000FF02CEF10F0C85108E1C705D8A017EF54
:101E28000FF019EF0FF01BEF0FF02CEF10F0BDC003
:101E3800CDF0BEC0CEF0BFC0CFF0C0C0D0F020EE15
:101E48002FF0BB51D926BC51DA22DECFC9F0DECF44
:101E5800CAF0DECFCBF0DECFCCF0660E976F7D0EEA
:101E6800986FCDC099F0CEC09AF0CFC09BF0D0C08B
:101E78009CF0C9C09DF0CAC09EF0CBC09FF0CCC0FA
:101E8800A0F0FFEC2BF053EF0FF0D890D033CF3306
:101E9800CE33CD33D890CC33CB33CA33C9330001DA
:101EA800CC51CB1107E1100ECA5DD8B05EEF0FF030
:101EB80060EF0FF049EF0FF00D0E976F7E0E986FE1
:101EC800CDC099F0CEC09AF0CFC09BF0D0C09CF0A6
:101ED800C9C09DF0CAC09EF0CBC09FF0CCC0A0F096
:101EE800FFEC2BF00001CD51CE11CF11D011D8B499
:101EF80080EF0FF082EF0FF0D2EF0FF0C9C016F0AD
:101F0800CAC017F0CBC018F0CCC019F0CDC01AF079
:101F1800CEC01BF0CFC01CF0D0C01DF0BAEC21F031
:101F280016C0C1F017C0C2F018C0C3F019C0C4F081
:101F3800CDC023F0CEC024F0CFC025F0D0C026F00D
:101F4800C1C027F0C2C028F0C3C029F0C4C02AF01D
:101F580089EC25F023C0CDF024C0CEF025C0CFF009
:101F680026C0D0F0C9C023F0CAC024F0CBC025F0E9
:101F7800CCC026F0C1C027F0C2C028F0C3C029F0E9
:101F8800C4C02AF089EC25F023C0C9F024C0CAF0E7
:101F980025C0CBF026C0CCF0E2EF0FF0000ECD6FDD
:101FA800000ECE6F000ECF6F000ED06F020EC96FFD
:101FB800000ECA6F000ECB6F000ECC6FEC0E000146
:101FC800976F7D0E986FCDC099F0CEC09AF0CFC0B4
:101FD8009BF0D0C09CF0C9C09DF0CAC09EF0CBC099
:101FE8009FF0CCC0A0F0FFEC2BF0000120EE02F037
:101FF800BB51D926BC51DA22C5C0DEFFC6C0DDFF01
:1020080020EE04F0BB51D926BC51DA22CDC0DEFF48
:10201800CEC0DDFF20EE09F0BB51D926BC51DA2233
:10202800C9C0DEFFCAC0DDFF20EE13F0BB51D926C0
:10203800BC51DA22CD51CE11CF11D011D8B427EF2F
:1020480010F02AEF10F0010E2BEF10F0000EDF6EEB
:102058001200000120EE2BF0BB51D926BC51DA2228
:10206800DECF23F0DECF24F0DECF25F0DECF26F062
:1020780020EE2FF0BB51D926BC51DA22DECF27F053
:10208800DECF28F0DECF29F0DECF2AF089EC25F06C
:1020980023C0C1F024C0C2F0000120EE2BF0BB51D8
:1020A800D926BC51DA22DECF0DF0DECF0EF0DECF1E
:1020B8000FF0DECF10F020EE2FF0BB51D926BC5127
:1020C800DA22DECF11F0DECF12F0DECF13F0DECF52
:1020D80014F0BFEC26F00D500E100F101010D8B4ED
:1020E80078EF10F07AEF10F09FEF10F0A10E0001DA
:1020F800976F7B0E986F20EE2FF0BB51D926BC51FD
:10210800DA22DECF99F0DECF9AF0DECF9BF0DECF79
:102118009CF020EE2BF0BB51D926BC51DA22DECF41
:102128009DF0DECF9EF0DECF9FF0DECFA0F0FFEC7B
:102138002BF09EEF11F00001C2BFAAEF10F0040EC1
:10214800C25DD8A0AAEF10F0ACEF10F0D0EF10F0FD
:10215800EB0E976F7B0E986F20EE2FF0BB51D926B0
:10216800BC51DA22DECF99F0DECF9AF0DECF9BF0B9
:10217800DECF9CF020EE2BF0BB51D926BC51DA22E1
:10218800DECF9DF0DECF9EF0DECF9FF0DECFA0F059
:10219800FFEC2BF09EEF11F0C1B1D5EF10F0D7EFA7
:1021A80010F0F6EF10F0C1C00DF0C2C00EF0000E36
:1021B800106E020E0F6E6BEC23F0000120EE0FF094
:1021C800BB51D926BC51DA220DC0DEFF0EC0DDFF9F
:1021D80020EE0EF0BB51D926BC51DA22010EDF6E7B
:1021E80008EF11F020EE0FF0BB51D926BC51DA22CE
:1021F800C1C0DEFFC2C0DDFF20EE0EF0BB51D92604
:10220800BC51DA22000EDF6E20EE19F0BB51D92640
:10221800BC51DA22000EDF6E20EE2FF0BB51D9261A
:10222800BC51DA22FF0EDE24236EFF0EDE20246E60
:10223800FF0EDE20256EFF0EDE20266E7D0E276E39
:10224800000E286E000E296E000E2A6E89EC25F00D
:10225800010E23240001BD6F000E2420BE6F000E66
:102268002520BF6F000E2620C06FC051BF1108E1A6
:10227800BE05D8A042EF11F044EF11F075EF11F050
:1022880020EE19F0BB51D926BC51DA22010EDF6EBF
:1022980020EE2FF0BB51D926BC51DA22FF0EDE24E6
:1022A800236EFF0EDE20246EFF0EDE20256EFF0E4D
:1022B800DE20266EFA0E276E000E286E000E296E9E
:1022C800000E2A6E89EC25F0010E23240001BD6F53
:1022D800000E2420BE6F000E2520BF6F000E2620A2
:1022E800C06FC051BF1108E1BE05D8A07EEF11F044
:1022F80080EF11F096EF11F0AD0E976F7C0E986F8E
:1023080020EE2FF0BB51D926BC51DA22DECF99F04E
:10231800DECF9AF0DECF9BF0DECF9CF0FFEC2BF007
:102328009EEF11F020EE22F0BB51D926BC51DA22E3
:10233800BDC0DFFF120029C041F02AC042F02BC007
:1023480043F02CC044F02DC045F02EC046F02FC0FD
:1023580047F030C048F048BEB4EF11F0B7EF11F0C5
:10236800010EB8EF11F0000E3F6E406A3F5040106A
:10237800D8B4C1EF11F0C3EF11F0D3EF11F0481E3C
:10238800471E461E451E441E431E421E416C000E3B
:1023980042224322442245224622472248226ABE3C
:1023A800D8EF11F0DAEF11F0DBEF11F06B926ABEA3
:1023B800E8EF11F06A5006E16904D8B0E6EF11F0D1
:1023C800E8EF11F0EEEF11F0000E3C6E010E3B6EDF
:1023D800F2EF11F069C03BF06AC03CF067C03DF015
:1023E80068C03EF03F504010D8A4FDEF11F0FFEF59
:1023F80011F006EF12F06BA404EF12F006EF12F0E2
:1024080009EF12F03D06D8A03E06000E4A6E1F0ED8
:10241800496E000E0101DC6F8EEF12F04906D8A05C
:102428004A06BD0E4924D96E010E4A20DA6E41C013
:102438000DF042C00EF043C00FF044C010F045C08C
:1024480011F046C012F047C013F048C014F00A0E4D
:10245800156E000E166E000E176E000E186E000E2A
:10246800196E000E1A6E000E1B6E000E1C6E44ECE8
:102478001EF00DC031F00EC032F00FC033F010C0A6
:1024880034F011C035F012C036F013C037F014C064
:1024980038F031C01FF033C020F04EEC2BF01F5045
:1024A800300FDF6E3B06D8A03C063D06D8A03E069E
:1024B80041C00DF042C00EF043C00FF044C010F010
:1024C80045C011F046C012F047C013F048C014F0E0
:1024D8000A0E156E000E166E000E176E000E186EA0
:1024E800000E196E000E1A6E000E1B6E000E1C6E8A
:1024F80011EC1CF00DC041F00EC042F00FC043F0CB
:1025080010C044F011C045F012C046F013C047F0A7
:1025180014C048F04ABE99EF12F04A5008E1490445
:10252800D8A099EF12F09BEF12F0CBEF12F04150C8
:102538004210431044104510461047104810D8A4C4
:10254800A8EF12F0AAEF12F012EF12F03CBEB7EFAC
:1025580012F03C5006E13B04D8B0B5EF12F0B7EFEB
:1025680012F012EF12F03EBEC2EF12F03E5008E138
:102578003D04D8A0C2EF12F0C4EF12F0CBEF12F076
:102588006BB2C9EF12F0CBEF12F012EF12F03F501E
:102598004010D8A4D2EF12F0D4EF12F0DBEF12F013
:1025A8006BA4D9EF12F0DBEF12F0F9EF12F0490645
:1025B800D8A04A063F504010D8A4E5EF12F0E7EF44
:1025C80012F0EDEF12F0000E3A6E2B0E396EF1EFAD
:1025D80012F0000E3A6E2D0E396EBD0E4924D96EDA
:1025E800010E4A20DA6E39C0DFFF27C019F028C073
:1025F8001AF0BD0E49241B6E010E4A201C6E3DC008
:102608001DF03EC01EF0CDEC23F019C027F01AC013
:1026180028F012006ABE13EF13F015EF13F016EF4F
:1026280013F06B926ABE23EF13F06A5006E1690457
:10263800D8B021EF13F023EF13F029EF13F0000EB9
:102648003C6E010E3B6E2DEF13F069C03BF06AC083
:102658003CF067C03DF068C03EF06BA836EF13F061
:1026680038EF13F03CEF13F0FE0E3D26FF0E3E222E
:1026780026C03FF027C040F028C041F029C042F0F2
:102688002AC043F02BC044F02CC045F02DC046F0C2
:10269800000E486E1F0E476E000E0101DC6F08EF3A
:1026A80014F04706D8A048060F0E3F14496E4A6A30
:1026B8004ABE68EF13F04A5009E10A0E495CD8A0F7
:1026C80068EF13F06AEF13F072EF13F0570E492416
:1026D800496E000E4A204A6E78EF13F0300E4924F6
:1026E800496E000E4A204A6EBF0E2F6EFF0E306EE6
:1026F8002E50316E326A2F503126305032223250ED
:102708000AE11A0E315CD8A08CEF13F08FEF13F0AA
:10271800010E90EF13F0000E376E386A37503810FC
:10272800D8B499EF13F09BEF13F0CBEF13F09F0E93
:102738002F6EFF0E306E200E4910316E000E4A10BB
:10274800326E2F5031263050322232500AE11A0EA2
:10275800315CD8A0B2EF13F0B5EF13F0010EB6EF6D
:1027680013F0000E396E3A6A39503A10D8B4BFEFF8
:1027780013F0C1EF13F0CBEF13F049C013F04AC0C8
:1027880014F074EC29F013C049F014C04AF0BD0EDF
:102798004724D96E010E4820DA6E49C0DFFF3B0698
:1027A800D8A03C063D06D8A03E063FC02FF040C04A
:1027B80030F041C031F042C032F043C033F044C081
:1027C80034F045C035F046C036F0050EF5EF13F08D
:1027D800D8903632353234323332323231323032C6
:1027E8002F32E82EECEF13F02FC03FF030C040F04E
:1027F80031C041F032C042F033C043F034C044F03D
:1028080035C045F036C046F048BE14EF14F04850C5
:1028180009E1020E475CD8A014EF14F016EF14F08B
:1028280046EF14F03F50401041104210431044103E
:1028380045104610D8A423EF14F025EF14F055EFF7
:1028480013F03CBE32EF14F03C5006E13B04D8B024
:1028580030EF14F032EF14F055EF13F03EBE3DEFB9
:1028680014F03E5008E13D04D8A03DEF14F03FEFCE
:1028780014F046EF14F06BB244EF14F046EF14F086
:1028880055EF13F06BA84BEF14F04DEF14F063EF16
:1028980014F04706D8A04806BD0E4724D96E010E8D
:1028A8004820DA6E2EC0DFFF4706D8A04806BD0EC6
:1028B8004724D96E010E4820DA6E300EDF6E24C030
:1028C80019F025C01AF0BD0E47241B6E010E4820D2
:1028D8001C6E3DC01DF03EC01EF0CDEC23F019C0AB
:1028E80024F01AC025F01200BBC0D9FFBCC0DAFF23
:1028F800DE50DE10D8B483EF14F085EF14F0AAEFA1
:1029080015F0030E0001C36F000EC46F000EC56FF3
:10291800000EC66F20EE1EF0BB51D926BC51DA223C
:10292800DECFBDF0DDCFBEF0FF0EBD15BF6F0F0EC1
:10293800BE15C06FC16BC26B030ED890BF37C037CE
:10294800C137C237E82EA1EF14F0BF51C313C051ED
:10295800C413C151C513C251C61320EE1DF0BB519B
:10296800D926BC51DA22DF50BD6F030EBD17BDC09A
:10297800BEF0BF6BC06BC16B0F0ED890BE37BF37B0
:10298800C037C137E82EC1EF14F0BE51C313BF5191
:10299800C413C051C513C151C61320EE1CF0BB515E
:1029A800D926BC51DA22DF50BD6F010EBD17BDC05C
:1029B800BEF0BF6BC06BC16B120ED890BE37BF376D
:1029C800C037C137E82EE1EF14F0BE51C313BF5131
:1029D800C413C051C513C151C61320EE1BF0BB511F
:1029E800D926BC51DA22DF50BD6F010EBD17BDC01C
:1029F800BEF0BF6BC06BC16B150ED890BE37BF372A
:102A0800C037C137E82E01EF15F0BE51C313BF51CF
:102A1800C413C051C513C151C61320EE1AF0BB51DF
:102A2800D926BC51DA22DF50BD6F010EBD17BDC0DB
:102A3800BEF0BF6BC06BC16B160ED890BE37BF37E8
:102A4800C037C137E82E21EF15F0BE51C313BF516F
:102A5800C413C051C513C151C61320EE19F0BB51A0
:102A6800D926BC51DA22DF50BD6F010EBD17BDC09B
:102A7800BEF0BF6BC06BC16B170ED890BE37BF37A7
:102A8800C037C137E82E41EF15F0BE51C313BF510F
:102A9800C413C051C513C151C613460E976F7B0EA0
:102AA800986FC3C099F0C4C09AF0C5C09BF0C6C067
:102AB8009CF020EE19F0BB51D926BC51DA22DF5028
:102AC800BD6FBD519D6F9E6B20EE1AF0BB51D9268C
:102AD800BC51DA22DF50BE6FBE519F6FA06B20EE53
:102AE8001BF0BB51D926BC51DA22DF50BF6FBF5152
:102AF800A16FA26B20EE1CF0BB51D926BC51DA2283
:102B0800DF50C06FC051A36FA46B20EE1DF0BB5106
:102B1800D926BC51DA22DF50C16FC151A56FA66B0F
:102B280020EE1EF0BB51D926BC51DA22DECFA7F029
:102B3800DDCFA8F0FFEC2BF0C3C00DF0C4C00EF041
:102B4800C5C00FF0C6C010F0C6EC18F01200020E97
:102B58000D240F6E000E0E20106E0FC0F6FF10C071
:102B6800F7FF0900920EF51808E109000F0EF51895
:102B7800D8A4C1EF15F0C3EF15F03FEF16F0040E1F
:102B88000D240F6E000E0E20106E0FC0F6FF10C041
:102B9800F7FF0800F5A0D3EF15F0D5EF15F0DBEF40
:102BA80015F0000E0E6E000E0D6ECDEF16F0040E31
:102BB8000D240F6E000E0E20106E0FC0F6FF10C011
:102BC800F7FF0800F5A2EBEF15F0EDEF15F0F3EFC6
:102BD80015F0000E0E6E010E0D6ECDEF16F0040E00
:102BE8000D240F6E000E0E20106E0FC0F6FF10C0E1
:102BF800F7FF0800F5A403EF16F005EF16F00BEF4A
:102C080016F0000E0E6E020E0D6ECDEF16F0040ECD
:102C18000D240F6E000E0E20106E0FC0F6FF10C0B0
:102C2800F7FF0800F5A61BEF16F01DEF16F023EFCF
:102C380016F0000E0E6E030E0D6ECDEF16F0040E9C
:102C48000D240F6E000E0E20106E0FC0F6FF10C080
:102C5800F7FF0800F5AA33EF16F035EF16F03BEF53
:102C680016F0000E0E6E040E0D6ECDEF16F00D6808
:102C78000E68CDEF16F0020E0D240F6E000E0E201A
:102C8800106E0FC0F6FF10C0F7FF0900930EF5187D
:102C980008E109000F0EF518D8A455EF16F057EF04
:102CA80016F03BEF16F0040E0D240F6E000E0E20EA
:102CB800106E0FC0F6FF10C0F7FF0800F5A067EF11
:102CC80016F069EF16F06FEF16F0000E0E6E0C0E90
:102CD8000D6ECDEF16F0040E0D240F6E000E0E20B3
:102CE800106E0FC0F6FF10C0F7FF0800F5A27FEFC7
:102CF80016F081EF16F087EF16F0000E0E6E0A0E32
:102D08000D6ECDEF16F0040E0D240F6E000E0E2082
:102D1800106E0FC0F6FF10C0F7FF0800F5A497EF7C
:102D280016F099EF16F09FEF16F0000E0E6E080ED3
:102D38000D6ECDEF16F0040E0D240F6E000E0E2052
:102D4800106E0FC0F6FF10C0F7FF0800F5A6AFEF32
:102D580016F0B1EF16F0B7EF16F0000E0E6E090E72
:102D68000D6ECDEF16F0040E0D240F6E000E0E2022
:102D7800106E0FC0F6FF10C0F7FF0800F5A8C7EFE8
:102D880016F0C9EF16F03BEF16F0000E0E6E0B0EA4
:102D98000D6E12006ABED3EF16F0D5EF16F0D6EF1F
:102DA80016F06B926ABEE3EF16F06A5006E169040A
:102DB800D8B0E1EF16F0E3EF16F0E9EF16F0000EE9
:102DC800396E010E386EEDEF16F069C038F06AC042
:102DD80039F067C03AF068C03BF028C03CF029C021
:102DE8003DF02AC03EF02BC03FF02CC040F02DC073
:102DF80041F02EC042F02FC043F0000E456E1F0E6A
:102E0800446E000E0101DC6F80EF17F04406D8A075
:102E18004506BD0E4424D96E010E4520DA6E3CC02D
:102E28000DF03DC00EF03EC00FF03FC010F040C0A6
:102E380011F041C012F042C013F043C014F00A0E62
:102E4800156E000E166E000E176E000E186E000E30
:102E5800196E000E1A6E000E1B6E000E1C6E03EC2F
:102E680023F00DC030F00EC031F00FC032F010C0AA
:102E780033F011C034F012C035F013C036F014C06E
:102E880037F03050300FDF6E3806D8A039063A06D2
:102E9800D8A03B063CC00DF03DC00EF03EC00FF080
:102EA8003FC010F040C011F041C012F042C013F012
:102EB80043C014F00A0E156E000E166E000E176E43
:102EC800000E186E000E196E000E1A6E000E1B6EA4
:102ED800000E1C6E42EC21F00DC03CF00EC03DF01F
:102EE8000FC03EF010C03FF011C040F012C041F0DA
:102EF80013C042F014C043F044504510D8B487EFD3
:102F080017F089EF17F0B9EF17F03C503D103E105D
:102F18003F104010411042104310D8A496EF17F00C
:102F280098EF17F00AEF17F039BEA5EF17F03950F0
:102F380006E13804D8B0A3EF17F0A5EF17F00AEFB1
:102F480017F03BBEB0EF17F03B5008E13A04D8A0A9
:102F5800B0EF17F0B2EF17F0B9EF17F06BB2B7EFA9
:102F680017F0B9EF17F00AEF17F026C019F027C0CD
:102F78001AF0BD0E44241B6E010E45201C6E3AC08B
:102F88001DF03BC01EF0CDEC23F019C026F01AC08E
:102F980027F01200800E9B6EF20ED36ED3A4D7EFEB
:102FA80017F0D9EF17F0D2EF17F0000E9D6E000E54
:102FB800A06E63EC0AF061EC2CF0F30E116E790E42
:102FC800126EA3EC29F0EE0E116E790E126EA3ECC0
:102FD80029F0E90E116E790E126EA3EC29F0E40EB9
:102FE800116E790E126EA3EC29F0000E306EC20E2F
:102FF800316E010E326E000E336EDCEC28F0010EDD
:10300800F66E7A0EF76E0800F5CFE0F0FD0EF66E5C
:10301800790EF76E0900F5CFE1F00900F5CFE2F07F
:10302800E1C0D9FFE2C0DAFFDF500001E015000976
:10303800D8A421EF18F024EF18F0010E25EF18F0AE
:10304800000EE56FE66BC40E976F7E0E986FB90E93
:10305800996F7F0E9A6FFFEC2BF00001E551E61196
:10306800D8A439EF18F03BEF18F041EF18F0FC0E38
:10307800E36F7F0EE46F45EF18F0F90EE36F7F0EF4
:10308800E46F970E976F7E0E986FE3C099F0E4C0D7
:103098009AF0FFEC2BF00001E551E611D8B457EF98
:1030A80018F059EF18F071EF18F0860E196E010E2E
:1030B8001A6E100E1B6E270E1C6E000E1D6E000E73
:1030C8001E6E100E1F6E270E206E000E216E000E53
:1030D800226E2DEC22F087EF18F0860E196E010E85
:1030E8001A6E400E1B6E9C0E1C6E000E1D6E000E9E
:1030F8001E6E100E1F6E270E206E000E216E000E23
:10310800226E2DEC22F0EA0E0001976F7E0E986F6A
:10311800FFEC2BF0860E0001CF6F010ED06FEBC0D5
:10312800D1F0E9C0D2F0000ED46F010ED36FE0ECFD
:1031380024F0950E0001976F7F0E986FFFEC2BF02F
:103148006CEC2CF0D09EF28CF28EC20E0001976FC0
:103158007F0E986FFFEC2BF00400DDEC04F005EC1B
:1031680028F0F6EC1EF03CEC28F01A0E0001E06F97
:10317800F80EE82EFED7E02FFCD700F0B0EF18F0DD
:1031880007EF00F0000E156E000E166E000E176E9B
:10319800800E186E060EF66E7A0EF76E0800F55061
:1031A800FF0A116E020EF66E7A0EF76E0900F5CF61
:1031B80012F00900F5CF13F012C0D9FF13C0DAFFDF
:1031C8001150DF1600D068EF19F015500D14116E6C
:1031D80016500E14126E17500F14136E1850101448
:1031E800146E1150121013101410D8B4FEEF18F00A
:1031F80000EF19F019EF19F00B0EF66E7A0EF76E54
:103208000800F5CF11F0070EF66E7A0EF76E09007A
:10321800F5CF12F00900F5CF13F012C0D9FF13C093
:10322800DAFF1150DF1231EF19F00B0EF66E7A0E3D
:10323800F76E0800F550FF0A116E070EF66E7A0E4B
:10324800F76E0900F5CF12F00900F5CF13F012C0A0
:10325800D9FF13C0DAFF1150DF1600D0060EF66E44
:103268007A0EF76E0800F5CF11F0020EF66E7A0EA0
:10327800F76E0900F5CF12F00900F5CF13F012C070
:10328800D9FF13C0DAFF1150DF1200D0060EF66E18
:103298007A0EF76E0800F550FF0A116E020EF66EF0
:1032A8007A0EF76E0900F5CF12F00900F5CF13F08A
:1032B80012C0D9FF13C0DAFF1150DF1600D0D89022
:1032C80018321732163215321550161017101810FA
:1032D800D8A471EF19F073EF19F0E9EF18F0100E98
:1032E800F66E7A0EF76E0800F5CF11F00C0EF66E3A
:1032F8007A0EF76E0900F5CF12F00900F5CF13F03A
:1033080012C0D9FF13C0DAFF1150DF1200D0100E1F
:10331800F66E7A0EF76E0800F550FF0A116E0C0E65
:10332800F66E7A0EF76E0900F5CF12F00900F5CFA8
:1033380013F012C0D9FF13C0DAFF1150DF16210EA7
:10334800E82EFED700F012000001DE6F0001EF51F9
:10335800DE19D8B4B2EF19F0B4EF19F07CEF1AF017
:10336800040EDE61BAEF19F0BCEF19F07CEF1AF029
:10337800000EDD6F640EDC6FDBEC25F0340E00010F
:10338800976F7F0E986FDEC099F09A6BFFEC2BF069
:10339800FD0E0001976F7E0E986FFFEC2BF0860EE6
:1033A8000001D16F010ED26FDE51040D7F0EF324A0
:1033B800F66E790EF420F76E0900F5CFD3F0090008
:1033C800F5CFD4F00900F5CFD5F00A00F5CFD6F047
:1033D80087EC27F0D70E0001976F7E0E986FFFECF1
:1033E8002BF0860E0001CF6F010ED06F000ED26F4A
:1033F800010ED16F29EC26F00EEF1AF0DC07D8A0E9
:10340800DD07030E0001D96F970EE82EFED7D92FDE
:10341800FCD700D0860E0D6E010E0E6EC3EC2AF09E
:103428000D500E10D8A41BEF1AF01DEF1AF02BEF59
:103438001AF00001DDBF2BEF1AF0DD5106E1DC05C3
:10344800D8B029EF1AF02BEF1AF002EF1AF00001AA
:10345800DDBF39EF1AF0DD5106E1DC05D8B037EFF2
:103468001AF039EF1AF059EF1AF0450E976F7F0EE0
:10347800986FFFEC2BF0D40EF66E790EF76E0800FD
:10348800F5CFD9F0D00EF66E790EF76E0900F5CFAC
:10349800DAF00900F5CFDBF0DAC0D9FFDBC0DAFFDC
:1034A8000001D951DF1271EF1AF0D40EF66E790EC1
:1034B800F76E0800F550FF0AD96FD00EF66E790E38
:1034C800F76E0900F5CFDAF00900F5CFDBF0DAC0C6
:1034D800D9FFDBC0DAFFD951DF16DEC0EFF0100EDE
:1034E800976F7F0E986FDEC099F09A6BFFEC2BF008
:1034F800120021EEE7F010EE17F0060EDBCFE3FF27
:10350800E806FCE214C022F015C023F02250231074
:10351800D8A491EF1AF093EF1AF097EF1AF0170E5C
:10352800226E000E236E22C00DF023C00EF051EC67
:103538002AF00DC026F00EC027F069C024F06AC03A
:1035480025F025BEAAEF1AF0ACEF1AF0C1EF1AF079
:103558002650245C2550800A166E2750800A16587B
:10356800D8A0B9EF1AF0BBEF1AF0BDEF1AF0C1EF0F
:103578001AF024C026F025C027F026C024F027C062
:1035880025F067C020F068C021F06BB0CEEF1AF0CC
:10359800D0EF1AF0EDEF1AF0DEEF1AF0000E0F6E12
:1035A800200E0E6E12C010F013C011F013EC2CF0A8
:1035B800264A272A2050265C2750800A166E21505A
:1035C800800A1658D8A0EBEF1AF0EDEF1AF0D2EFF8
:1035D8001AF0000E1F6E000E1E6E11EF1BF022C0B7
:1035E800F6FF23C0F7FFF86A050EF76403D008005A
:1035F800F55005D0F6CFE1FFF7CFE2FFE750166EA2
:1036080016500E6E0F6A12C010F013C011F013ECB2
:103618002CF0224A232A1E4A1F2A24501E5C1F50BF
:10362800800A166E2550800A1658D8A01EEF1BF087
:1036380020EF1BF0F3EF1AF06BA025EF1BF027EF3C
:103648001BF044EF1BF035EF1BF0000E0F6E200E41
:103658000E6E12C010F013C011F013EC2CF0264AB5
:10366800272A2050265C2750800A166E2150800A8F
:103678001658D8A042EF1BF044EF1BF029EF1BF0BF
:1036880026C012F027C013F01200000E226E000EA2
:10369800216E000E1B6E000E1A6E55EF1BF0144AB9
:1036A800152A010E206E14C0F6FF15C0F7FF08009A
:1036B800F550200AD8B463EF1BF065EF1BF082EFDA
:1036C8001BF0F70E166EFF0E176E14C0F6FF15C02E
:1036D800F7FF0800F550186E196A1650182617508B
:1036E8001922195009E1050E185CD8A07EEF1BF0CD
:1036F80080EF1BF082EF1BF0000E206E20C01CF044
:103708001D6A1C501D10D8A48CEF1BF08EEF1BF007
:1037180053EF1BF098EF1BF0000E1B6E010E1A6E94
:10372800144A152ACDEF1BF014C0F6FF15C0F7FF99
:103738000800F550166E176A1750000AD8B4A7EF9C
:103748001BF0CDEF1BF016502B0AD8B494EF1BF0EA
:10375800060AD8B490EF1BF0CDEF1BF021C00DF096
:1037680022C00EF0000E106E0A0E0F6E27EC2CF021
:1037780014C0F6FF15C0F7FF0800F5500D5E000EE7
:103788000E5A300E0D24216E000E0E20226E94EF7C
:103798001BF0D00E166EFF0E176E14C0F6FF15C084
:1037A800F7FF0800F550186E196A165018261750BA
:1037B800192219500AE10A0E185CD8A0E6EF1BF08E
:1037C800E9EF1BF0010EEAEF1BF0000E1E6E1F6AF8
:1037D8001E501F10D8A4F3EF1BF0F5EF1BF0B2EF4B
:1037E8001BF01A501B10D8A4FCEF1BF0FEEF1BF0C7
:1037F8000CEF1CF021C016F022C017F0161E171E81
:10380800164A172A16C014F017C015F010EF1CF04E
:1038180021C014F022C015F01200000E1E6E1CBE4E
:103828001AEF1CF018EF1CF02CEF1CF01C1E1B1ECE
:103838001A1E191E181E171E161E156C000E1622AB
:103848001722182219221A221B221C22010E1E6E70
:1038580014BE33EF1CF031EF1CF045EF1CF0141EC2
:10386800131E121E111E101E0F1E0E1E0D6C000EB2
:103878000E220F2210221122122213221422010ECC
:103888001E1A20EE1FF0070EDE6AE806FDE215504C
:1038980016101710181019101A101B101C10D8B475
:1038A80058EF1CF05AEF1CF0ACEF1CF0010E1D6E27
:1038B80068EF1CF0D89015361636173618361936B4
:1038C8001A361B361C361D2A1CAE6DEF1CF06FEF26
:1038D8001CF05EEF1CF0D8901F36203621362236B9
:1038E800233624362536263615500D5C16500E58CC
:1038F80017500F5818501058195011581A5012587C
:103908001B5013581C501458D8A08DEF1CF08FEF83
:103918001CF0A0EF1CF015500D5E16500E5A1750F3
:103928000F5A1850105A1950115A1A50125A1B503F
:10393800135A1C50145A1F80D8901C321B321A324A
:10394800193218321732163215321D2E6FEF1CF04D
:103958001E50D8B4B2EF1CF0B4EF1CF0C4EF1CF04A
:10396800261E251E241E231E221E211E201E1F6CFD
:10397800000E20222122222223222422252226224E
:103988001FC00DF020C00EF021C00FF022C010F0B3
:1039980023C011F024C012F025C013F026C014F083
:1039A80012000DC017F00EC018F011501210D8A454
:1039B800E0EF1CF0E2EF1CF0E4EF1CF08FEF1DF0DD
:1039C80017C0D9FF18C0DAFF0FC0DFFF1150172446
:1039D800136E12501820146EFF0E1324D96EFF0EAA
:1039E8001420DA6E0FC0DFFF125007E1030E115CDE
:1039F800D8B001EF1DF003EF1DF005EF1DF08FEFBC
:103A08001DF020EE01F01750D9261850DA220FC009
:103A1800DFFF20EE02F01750D9261850DA220FC027
:103A2800DFFF11501724136E12501820146EFE0E6B
:103A38001324D96EFF0E1420DA6E0FC0DFFF115069
:103A48001724136E12501820146EFD0E1324D96E0D
:103A5800FF0E1420DA6E0FC0DFFF125007E1070EC9
:103A6800115CD8B03AEF1DF03CEF1DF03EEF1DF0B1
:103A78008FEF1DF020EE03F01750D9261850DA22E8
:103A88000FC0DFFF11501724136E12501820146E48
:103A9800FC0E1324D96EFF0E1420DA6E0FC0DFFF60
:103AA800125007E1090E115CD8B05DEF1DF05FEF11
:103AB8001DF061EF1DF08FEF1DF017C013F018C057
:103AC80014F0131E141E134A142A030E1314156E31
:103AD800166A15501726165018221550115E1650E2
:103AE800125AFC0E1116FF0E121686EF1DF017C0A3
:103AF800D9FF18C0DAFF0FC0DFFF1106D8A01206E1
:103B0800174A182A11501210D8A48DEF1DF08FEF04
:103B18001DF07BEF1DF01200BBC0D9FFBCC0DAFF5F
:103B2800DE50DE10D8B49BEF1DF09DEF1DF043EF83
:103B38001EF0010E0001C36F000EC46F000EC56FAA
:103B4800000EC66F20EE09F0BB51D926BC51DA220F
:103B5800DECFBDF0DDCFBEF0FF0EBD15BF6F0F0E7F
:103B6800BE15C06FC16BC26B030ED890BF37C0378C
:103B7800C137C237E82EB9EF1DF0BF51C313C0518A
:103B8800C413C151C513C251C61320EE07F0BB516F
:103B9800D926BC51DA22DECFBDF0DDCFBEF0FF0E54
:103BA800BD15BF6F0F0EBE15C06FC16BC26B0F0E78
:103BB800D890BF37C037C137C237E82EDCEF1DF0C9
:103BC800BF51C313C051C413C151C513C251C61349
:103BD80020EE06F0BB51D926BC51DA22DF50BD6F6A
:103BE800010EBD17BDC0BEF0BF6BC06BC16B1B0E15
:103BF800D890BE37BF37C037C137E82EFCEF1DF06D
:103C0800BE51C313BF51C413C051C513C151C6130C
:103C1800330E976F7C0E986FC3C099F0C4C09AF0AA
:103C2800C5C09BF0C6C09CF020EE06F0BB51D9265B
:103C3800BC51DA22DF50BD6FBD519D6F9E6B20EEE7
:103C480007F0BB51D926BC51DA22DECF9FF0DDCF79
:103C5800A0F020EE09F0BB51D926BC51DA22DECF04
:103C6800A1F0DDCFA2F0FFEC2BF0C3C00DF0C4C073
:103C78000EF0C5C00FF0C6C010F0C6EC18F0120068
:103C8800000E1E6E14BE4DEF1EF04BEF1EF05FEFE0
:103C98001EF0141E131E121E111E101E0F1E0E1EC5
:103CA8000D6C000E0E220F22102211221222132256
:103CB8001422010E1E6E1CBE66EF1EF064EF1EF08D
:103CC80076EF1EF01C1E1B1E1A1E191E181E171E2C
:103CD800161E156C000E16221722182219221A22F7
:103CE8001B221C22155016101710181019101A1024
:103CF8001B101C10D8B483EF1EF085EF1EF0CDEF1B
:103D08001EF0010E1D6E93EF1EF0D8901536163674
:103D18001736183619361A361B361C361D2A1CAEAD
:103D280098EF1EF09AEF1EF089EF1EF015500D5C0B
:103D380016500E5817500F5818501058195011583F
:103D48001A5012581B5013581C501458D8A0AFEFD3
:103D58001EF0B1EF1EF0C1EF1EF015500D5E1650AB
:103D68000E5A17500F5A1850105A1950115A1A5003
:103D7800125A1B50135A1C50145AD8901C321B321A
:103D88001A32193218321732163215321D2E9AEF9E
:103D98001EF01E50D8B4D3EF1EF0D5EF1EF0E5EF9D
:103DA8001EF0141E131E121E111E101E0F1E0E1EB4
:103DB8000D6C000E0E220F22102211221222132245
:103DC80014220DC00DF00EC00EF00FC00FF010C081
:103DD80010F011C011F012C012F013C013F014C08B
:103DE80014F0120001018451126E8551136E844B38
:103DF800852B13BE09EF1FF0135009E1640E125C06
:103E0800D8A009EF1FF00BEF1FF05FEF1FF0D90EDE
:103E1800F66E790EF76E0800F5CF12F0D50EF66E35
:103E2800790EF76E0900F5CF13F00900F5CF14F0FD
:103E380013C0D9FF14C0DAFFDF5012140009D8B438
:103E480028EF1FF02AEF1FF044EF1FF0D90EF66E8F
:103E5800790EF76E0800F550FF0A126ED50EF66E51
:103E6800790EF76E0900F5CF13F00900F5CF14F0BD
:103E780013C0D9FF14C0DAFF1250DF165BEF1FF032
:103E8800D90EF66E790EF76E0800F5CF12F0D50E42
:103E9800F66E790EF76E0900F5CF13F00900F5CF2D
:103EA80014F013C0D9FF14C0DAFF1250DF12000E4D
:103EB800856F000E846F860E0D6E010E0E6EC3ECBC
:103EC8002AF00D500E10D8A46CEF1FF06EEF1FF003
:103ED80087EF1FF0D40EF66E790EF76E0800F5CF57
:103EE80012F0D00EF66E790EF76E0900F5CF13F0CA
:103EF8000900F5CF14F013C0D9FF14C0DAFF12502F
:103F0800DF129FEF1FF0D40EF66E790EF76E0800E1
:103F1800F550FF0A126ED00EF66E790EF76E090094
:103F2800F5CF13F00900F5CF14F013C0D9FF14C072
:103F3800DAFF1250DF161200000E186E000E176E10
:103F480012500DE1810E0F5C230E1058430E1158CC
:103F5800D8A0B1EF1FF0B3EF1FF0BCEF1FF02DEFAB
:103F680020F0D8900F36103611361236174A182A14
:103F780012500BE1C10E0F5C910E1058210E115812
:103F8800D8B0C9EF1FF0CBEF1FF0D9EF1FF018BE64
:103F9800D7EF1FF0185009E1050E175CD8A0D7EF2E
:103FA8001FF0D9EF1FF0B5EF1FF012500DE1C10E51
:103FB8000F5C910E1058210E1158D8A0E6EF1FF093
:103FC800E8EF1FF02DEF20F018BEF4EF1FF01850A7
:103FD80009E1050E175CD8A0F4EF1FF0F6EF1FF00B
:103FE800F8EF1FF02DEF20F020EE33F00D50D9261A
:103FF8000E50DA220FC0DEFF10C0DEFF11C0DEFF58
:1040080012C0DEFF20EE06F00D50D9260E50DA223F
:1040180010EE33F00D50E1260E50E222030EE3506D
:104028000BE1810EE65CEE0EE658360EE658D8B087
:1040380020EF20F023EF20F0010E24EF20F0000EF7
:10404800DF6E20EE21F00D50D9260E50DA2217C06F
:10405800DFFF12000DC014F00EC015F00FC016F0EF
:1040680010C017F01106D8A01206112806E1122870
:10407800D8A441EF20F043EF20F050EF20F0000EDD
:104088000E6E000E0D6EBAEF20F0144A152A164A6D
:10409800172A1106D8A0120614C0F6FF15C0F7FF9C
:1040A800F86A050EF76403D00800F55005D0F6CF7E
:1040B800E1FFF7CFE2FFE7500009D8B466EF20F040
:1040C80068EF20F09EEF20F016C0F6FF17C0F7FF4C
:1040D8000800F5500009D8B474EF20F076EF20F00E
:1040E8009EEF20F011501210D8B47DEF20F07FEF32
:1040F80020F09EEF20F016C0F6FF17C0F7FF08006B
:10410800F5CF13F014C0F6FF15C0F7FFF86A050ED7
:10411800F76403D00800F55005D0F6CFE1FFF7CFDC
:10412800E2FFE7501318D8B49CEF20F09EEF20F080
:1041380049EF20F014C0F6FF15C0F7FFF86A050E26
:10414800F76403D00800F55005D0F6CFE1FFF7CFAC
:10415800E2FFE750136E16C0F6FF17C0F7FF08001E
:10416800F550135C0D6E0E6AD8A00E061200BBC087
:10417800D9FFBCC0DAFFDE50DE10D8B4C6EF20F09D
:10418800C8EF20F041EF21F0000E0001C36F000ED0
:10419800C46F000EC56F000EC66F20EE04F0BB5151
:1041A800D926BC51DA22DECFBDF0DDCFBEF0FF0E3E
:1041B800BD15BF6F0F0EBE15C06FC16BC26B030E6E
:1041C800D890BF37C037C137C237E82EE4EF20F0A8
:1041D800BF51C313C051C413C151C513C251C61333
:1041E80020EE02F0BB51D926BC51DA22DECFBDF059
:1041F800DDCFBEF0BD51BF6FBE51C06FC16BC26B8A
:104208000F0ED890BF37C037C137C237E82E05EF39
:1042180021F0BF51C313C051C413C151C513C251BA
:10422800C613E40E976F7C0E986FC3C099F0C4C094
:104238009AF0C5C09BF0C6C09CF020EE02F0BB51BE
:10424800D926BC51DA22DECF9DF0DDCF9EF020EEDC
:1042580004F0BB51D926BC51DA22DECF9FF0DDCF66
:10426800A0F0FFEC2BF0C3C00DF0C4C00EF0C5C029
:104278000FF0C6C010F0C6EC18F0120020EE1DF0CA
:10428800070EDE6AE806FDE2155016101710181022
:1042980019101A101B101C10D8B455EF21F057EF45
:1042A80021F0A9EF21F0010E256E65EF21F0D890DD
:1042B800153616361736183619361A361B361C3682
:1042C800252A1CAE6AEF21F06CEF21F05BEF21F09C
:1042D800D8901D361E361F36203621362236233614
:1042E800243615500D5C16500E5817500F5818509C
:1042F8001058195011581A5012581B5013581C5066
:104308001458D8A08AEF21F08CEF21F09DEF21F00E
:1043180015500D5E16500E5A17500F5A1850105A55
:104328001950115A1A50125A1B50135A1C50145A29
:104338001D80D8901C321B321A32193218321732AB
:1043480016321532252E6CEF21F01DC00DF01EC05F
:104358000EF01FC00FF020C010F021C011F022C0D5
:1043680012F023C013F024C014F0120007EF22F05B
:1043780016C01EF017C01FF018C020F019C021F099
:104388001A50165C1B5017581C5018581D501958B5
:10439800D8B0D1EF21F0D3EF21F0E5EF21F01AC02A
:1043A80016F01BC017F01CC018F01DC019F01EC075
:1043B8001AF01FC01BF020C01CF021C01DF007EF31
:1043C80022F01AC016F01BC017F01CC018F01DC050
:1043D80019F01EC00DF01FC00EF020C00FF021C054
:1043E80010F01AC011F01BC012F01CC013F01DC051
:1043F80014F0BFEC26F00DC01AF00EC01BF00FC071
:104408001CF010C01DF016C00DF017C00EF018C03B
:104418000FF019C010F01AC011F01BC012F01CC028
:1044280013F01DC014F0BFEC26F00D500E100F1045
:104438001010D8A422EF22F024EF22F0BCEF21F0D4
:104448001AC016F01BC017F01CC018F01DC019F0D8
:10445800120019C00DF01AC00EF0000E106E000EFA
:104468000F6E000E126E370E116ED5EC1CF019C0CF
:10447800D9FF1AC0DAFF010EDE6E000EDD6E20EEE7
:104488002BF01950D9261A50DA221BC0DEFF1CC0A7
:10449800DEFF1DC0DEFF1EC0DEFF20EE2FF019502C
:1044A800D9261A50DA221FC0DEFF20C0DEFF21C045
:1044B800DEFF22C0DEFF100EF66E7A0EF76E0800E1
:1044C800F550FF0A236E0C0EF66E7A0EF76E090091
:1044D800F5CF24F00900F5CF25F024C0D9FF25C079
:1044E800DAFF2350DF16150EF66E7A0EF76E080007
:1044F800F5CF23F0110EF66E7A0EF76E0900F5CFA0
:1045080024F00900F5CF25F024C0D9FF25C0DAFF33
:104518002350DF1219C00DF01AC00EF036EC25F04A
:10452800420EE82EFED700D012000001E8BFA5EF2A
:1045380022F0E85108E1E705D8A0A5EF22F0A7EF9F
:1045480022F0ACEF22F0E707D8A0E80702EF23F04B
:10455800E751E811D8A4B3EF22F0B5EF22F002EF4B
:1045680023F0A30E976F7F0E986FFFEC2BF00001DE
:10457800E707D8A0E807CA0EF66E790EF76E0800AE
:10458800F5CFD1F0C60EF66E790EF76E0900F5CFAD
:10459800D2F00900F5CFD3F0D2C0D9FFD3C0DAFFEB
:1045A800D151DF12CF0EF66E790EF76E0800F55076
:1045B800FF0AD16FCB0EF66E790EF76E0900F5CFB4
:1045C800D2F00900F5CFD3F0D2C0D9FFD3C0DAFFBB
:1045D800D151DF16060E0001D16F300EE82EFED73E
:1045E800D12FFCD700F0860E0001CD6F010ECE6FE3
:1045F800000ED06F010ECF6FFFEC29F0120015509E
:1046080016101710181019101A101B101C10D8B4F7
:1046180010EF23F012EF23F05AEF23F0010E1D6E76
:1046280020EF23F0D8901536163617361836193677
:104638001A361B361C361D2A1CAE25EF23F027EF31
:1046480023F016EF23F015500D5C16500E58175036
:104658000F5818501058195011581A5012581B500A
:1046680013581C501458D8A03CEF23F03EEF23F009
:104678004EEF23F015500D5E16500E5A17500F5A74
:104688001850105A1950115A1A50125A1B50135ACE
:104698001C50145AD8901C321B321A321932183254
:1046A8001732163215321D2E27EF23F00DC00DF0EC
:1046B8000EC00EF00FC00FF010C010F011C011F0B6
:1046C80012C012F013C013F014C014F01200000E40
:1046D800126E10BE74EF23F072EF23F07AEF23F01E
:1046E8000F6C101ED8B0102A010E126E0EBE81EF8C
:1046F80023F07FEF23F087EF23F00D6C0E1ED8B068
:104708000E2A010E121A000E146E000E136E0F50B0
:104718001010D8B492EF23F094EF23F0BCEF23F0FD
:10472800010E116E9CEF23F0D8900F361036112A27
:1047380010AEA1EF23F0A3EF23F098EF23F0D89069
:10474800133614360F500D5C10500E58D8A0AFEF2A
:1047580023F0B1EF23F0B6EF23F00F500D5E1050A9
:104768000E5A1380D89010320F32112EA3EF23F077
:104778001250D8B4C2EF23F0C4EF23F0C8EF23F0EF
:10478800136C141ED8B0142A13C00DF014C00EF008
:1047980012006BA0D2EF23F0D4EF23F0DEEF23F06A
:1047A8001BC012F01CC013F019C014F01AC015F089
:1047B8002CEC2BF01EBEE3EF23F0E5EF23F0EBEF3C
:1047C80023F01DC022F01EC023F0EFEF23F0000EEF
:1047D800236E000E226E000E216E000E206E01EF79
:1047E80024F0000E0F6E200E0E6E19C010F01AC0C5
:1047F80011F013EC2CF0204A212A2250205C215081
:10480800800A1F6E2350800A1F58D8A00EEF24F08C
:1048180010EF24F0F5EF23F06BB015EF24F017EF4D
:1048280024F021EF24F01BC012F01CC013F019C0B3
:1048380014F01AC015F02CEC2BF01BC00DF01CC0A6
:104848000EF051EC2AF022500D24196E23500E2040
:104858001A6E1200BBC0D9FFBCC0DAFFDE50DE10F2
:10486800D8B439EF24F03BEF24F087EF24F0050E9D
:104878000001C26F000EC36F000EC46F000EC56F3B
:1048880020EE2AF0BB51D926BC51DA22DF50BD6F89
:10489800030EBD17BDC0BEF0BF6BC06BC16B160E5B
:1048A800D890BE37BF37C037C137E82E54EF24F051
:1048B800BE51C213BF51C313C051C413C151C51354
:1048C800130E976F7D0E986FC2C099F0C3C09AF00F
:1048D800C4C09BF0C5C09CF020EE2AF0BB51D9267D
:1048E800BC51DA22DF50BD6FBD519D6F9E6BFFEC4E
:1048F8002BF0C2C00DF0C3C00EF0C4C00FF0C5C08D
:1049080010F0C6EC18F01200000E126E0EBE91EFF9
:1049180024F08FEF24F097EF24F00D6C0E1ED8B022
:104928000E2A010E126E10BE9EEF24F09CEF24F0AA
:10493800A2EF24F00F6C101ED8B0102A0F501010E0
:10494800D8B4A9EF24F0ABEF24F0CFEF24F0010E98
:10495800116EB3EF24F0D8900F361036112A10AE2E
:10496800B8EF24F0BAEF24F0AFEF24F00F500D5C4D
:1049780010500E58D8A0C3EF24F0C5EF24F0C9EFAB
:1049880024F00F500D5E10500E5AD89010320F328E
:10499800112EBAEF24F01250D8B4D5EF24F0D7EF87
:1049A80024F0DBEF24F00D6C0E1ED8B00E2A0DC0DB
:1049B8000DF00EC00EF01200880E0001976F7D0EEC
:1049C800986FCFC099F0D0C09AF0D1C09BF09C6B83
:1049D800D2C09DF09E6BD3C09FF0D4C0A0F0FFEC76
:1049E8002BF00001D351D411D8A4FDEF24F0FFEF30
:1049F80024F005EF25F0000ED66F030ED56F09EFF2
:104A080025F0000ED66F000ED56F20EE0BF0CF51BB
:104A1800D926D051DA22D5C0DFFF20EE12F0CF51CF
:104A2800D926D051DA22D1C0DFFF20EE29F0CF51AC
:104A3800D926D051DA22D2C0DFFF20EE23F0CF51A1
:104A4800D926D051DA22DF50D8A42DEF25F02FEF48
:104A580025F035EF25F0CFC0CDF0D0C0CEF09EECDC
:104A68002AF0120020EE07F00D50D9260E50DA2257
:104A7800010EDE6E000EDD6E20EE0CF00D50D92614
:104A88000E50DA22060EDF6E20EE12F00D50D926F7
:104A98000E50DA22070EDF6E20EE0BF00D50D926ED
:104AA8000E50DA22030EDF6E20EE15F00D50D926D7
:104AB8000E50DA22010EDF6E20EE20F00D50D926BE
:104AC8000E50DA22010EDF6E20EE28F00D50D926A6
:104AD8000E50DA22000EDF6E20EE29F00D50D92696
:104AE8000E50DA22030EDF6E20EE23F00D50D92689
:104AF8000E50DA22010EDF6E20EE2AF00D50D92674
:104B08000E50DA22010EDF6E1200000E2B6E000E20
:104B18002C6E000E2D6E000E2E6E275028102910B8
:104B28002A10D8B49AEF25F09CEF25F0D2EF25F0A3
:104B3800010E2F6EA6EF25F0D89027362836293695
:104B48002A362F2A2AAEABEF25F0ADEF25F0A0EFDD
:104B580025F0D8902B362C362D362E362750235C50
:104B680028502458295025582A502658D8A0BFEF35
:104B780025F0C1EF25F0CAEF25F02750235E285015
:104B8800245A2950255A2A50265A2B80D8902A323E
:104B98002932283227322F2EADEF25F02BC023F0F3
:104BA8002CC024F02DC025F02EC026F012000001E4
:104BB800E8BFE3EF25F0E1EF25F024EF26F0AF0E94
:104BC800976F7F0E986FFFEC2BF0860E0001CD6F6C
:104BD800010ECE6F000ED06F000ECF6FFFEC29F0E4
:104BE800CA0EF66E790EF76E0800F550FF0A00013E
:104BF800D16FC60EF66E790EF76E0900F5CFD2F0BA
:104C08000900F5CFD3F0D2C0D9FFD3C0DAFFD15114
:104C1800DF16CF0EF66E790EF76E0800F5CFD1F0DD
:104C2800CB0EF66E790EF76E0900F5CFD2F00900BB
:104C3800F5CFD3F0D2C0D9FFD3C0DAFFD151DF12FC
:104C4800000EE86F0A0EE76F1200CFC0D9FFD0C080
:104C5800DAFFDE50DE10D8A434EF26F036EF26F067
:104C680038EF26F076EF26F00001D151D211D8B4F2
:104C780040EF26F042EF26F05AEF26F020EE23F020
:104C8800CF51D926D051DA22000EDF6E20EE16F071
:104C9800CF51D926D051DA22000EDF6ECFC0CDF029
:104CA800D0C0CEF09EEC2AF076EF26F020EE23F06E
:104CB800CF51D926D051DA22010EDF6E20EE16F040
:104CC800CF51D926D051DA22010EDF6ECFC0BBF00A
:104CD800D0C0BCF0A7EC0CF0CFC0BBF0D0C0BCF08B
:104CE80009EC08F01200E30EF66E790EF76E080074
:104CF800F5CF0DF0DF0EF66E790EF76E0900F5CFE1
:104D08000EF00900F5CF0FF00EC0D9FF0FC0DAFF83
:104D1800DF500D140009D8B494EF26F097EF26F071
:104D2800010E98EF26F0000E106EDE0EF66E790E6C
:104D3800F76E0800F5CF0DF0DA0EF66E790EF76E05
:104D48000900F5CF0EF00900F5CF0FF00EC0D9FF1E
:104D58000FC0DAFFDF500D140009D8B4B6EF26F003
:104D6800B9EF26F0010EBAEF26F0000E116E1150C1
:104D78001124101012001150121013101410D8B46E
:104D8800C8EF26F0CAEF26F0FAEF26F0010E156EEE
:104D9800D4EF26F0D8901136123613361436152A69
:104DA80014AED9EF26F0DBEF26F0CEEF26F0115047
:104DB8000D5C12500E5813500F5814501058D8A0AC
:104DC800E8EF26F0EAEF26F0F2EF26F011500D5E3C
:104DD80012500E5A13500F5A1450105AD8901432B9
:104DE800133212321132152EDBEF26F00DC00DF002
:104DF8000EC00EF00FC00FF010C010F01200EF0E32
:104E0800F66E580EF76E000EF86E01EEE7F010EE33
:104E180007F00900F5CFEEFFE550E150FAE1E60EA4
:104E2800F66E580EF76E000EF86E00EEE7F010EE14
:104E380009F00900F5CFEEFFE550E150FAE1F60E72
:104E4800F66E580EF76E000EF86E0900F5CF72F088
:104E580001EE00F0E70EEE6AE806FDE100EEF0F084
:104E6800070EEE6AE806FDE100EE67F00B0EEE6A4B
:104E7800E806FDE173907392000EF86E0001CEEF24
:104E880017F0B8BC4AEF27F04CEF27F04EEF27F0A9
:104E980086EF27F0AECF05F0ABA455EF27F057EF1C
:104EA80027F059EF27F086EF27F0ABA25EEF27F047
:104EB80060EF27F064EF27F0AB98AB8886EF27F018
:104EC800010E6D24036E000E6E20046E7F0E031417
:104ED800066E076A6F50061809E170500718D8B4B3
:104EE80078EF27F07AEF27F086EF27F0000E6D2491
:104EF800D96E010E6E20DA6E05C0DFFF06C06DF0B8
:104F080007C06EF01200D1C0D9FFD2C0DAFFDE5060
:104F1800DE10D8A492EF27F094EF27F096EF27F051
:104F2800C5EF27F0D1C00DF0D2C00EF0D3C00FF0FE
:104F3800D4C010F0D5C011F0D6C012F0A0EC1FF00C
:104F4800D1C0BBF0D2C0BCF02DEC10F0D1C0BBF08A
:104F5800D2C0BCF080EC0EF0000120EE23F0D1515D
:104F6800D926D251DA22DF50D8A4BDEF27F0BFEFFF
:104F780027F0C5EF27F0D1C0CDF0D2C0CEF09EEC1F
:104F88002AF012000600FACF08F0FBCF09F0D9CFBB
:104F98000AF0DACF0BF09EAAD4EF27F0D6EF27F06D
:104FA800F1EF27F00001F051F111D8B4DEEF27F04E
:104FB800E0EF27F0F1EF27F0F2C001F0F3C002F0C4
:104FC80002D8F1EF27F00500FA6EF051FD6EF151AD
:104FD800FE6EF850FF6EFA501200F2A0F6EF27F0BE
:104FE800F8EF27F0FBEF27F081CF0CF0F2900BC021
:104FF800DAFF0AC0D9FF09C0FBFF08C0FAFF7392A5
:10500800110077EC26F00001DF6F7250DF19D8B479
:1050180010EF28F012EF28F01BEF28F0DFC072F035
:10502800000E0001EE6F0A0EED6F3BEF28F0EEBFA9
:1050380026EF28F0EE5108E1ED05D8A026EF28F07C
:1050480028EF28F02DEF28F0ED07D8A0EE073BEF6A
:1050580028F0ED51EE11D8A434EF28F036EF28F0FF
:105068003BEF28F07250A8EC19F014EF28F012006A
:10507800860E0D6E010E0E6EC3EC2AF00D500E104A
:10508800D8B449EF28F04BEF28F06FEF28F0FC0E6A
:10509800F66E790EF76E0800F5CFD4F0F80EF66EBE
:1050A800790EF76E0900F5CFD5F00900F5CFD6F0E7
:1050B800D5C0D9FFD6C0DAFFDF500001D4150009EA
:1050C800D8A469EF28F06BEF28F06FEF28F099EC7F
:1050D80022F071EF28F0DBEC25F0120030C011F05F
:1050E80031C012F010EC29F011C017F012C018F0FE
:1050F800196A1A6A800E1B6E2C0E1C6E310E1D6EFC
:10510800000E1E6EA7EC28F0F40E1724236E010E75
:105118001820246E000E1920256E000E1A20266E07
:10512800E80E276E030E286E000E296E000E2A6EFA
:1051380089EC25F023C030F024C031F025C032F0CE
:1051480026C033F01200000E1F6E000E206E000EF7
:10515800216E000E226E17A0B4EF28F0B6EF28F0EB
:10516800BEEF28F01B501F261C5020221D50212264
:105178001E502222D8901B361C361D361E36D8905B
:105188001A321932183217321750181019101A100B
:10519800D8A4D1EF28F0D3EF28F0AFEF28F01FC044
:1051A80017F020C018F021C019F022C01AF0120020
:1051B8008A0E0D6E4E0E0E6E000E0F6E000E106EE5
:1051C800000E0AEC2BF0AC9CAC96AC84AC8AAB9C81
:1051D800AB88AB96B886B890800E236E840E246E8A
:1051E8001E0E256E000E266E30C027F031C028F046
:1051F80032C029F033C02AF089EC25F0FF0E2324B1
:10520800346EFF0E2420356E3550B06E34C0AFFFBB
:10521800AC98AB8E9D8A120011C00DF012C00EF032
:10522800ABEC15F00DC015F00EC016F016BE1FEF52
:1052380029F021EF29F03EEF29F0F00EC11615C034
:1052480013F013461346C2501318C30B1318C26E3B
:10525800C282C2B232EF29F034EF29F02DEF29F0E3
:105268000F0EC112C450136EC350116E13C012F04A
:1052780042EF29F0000E126E000E116E120061C08E
:1052880065F062C066F0000E0101816F000E806F4C
:1052980061EF29F05FC04BF060C04CF0650E4D6EB9
:1052A800000E4E6E63C04FF064C050F009EC00F081
:1052B8004B50010180274C50812365C0F6FF66C022
:1052C800F7FF0800F5500009D8A46DEF29F06FEF3B
:1052D80029F04EEF29F080C15FF081C160F0120023
:1052E8009F0E156EFF0E166E13C017F014C018F03F
:1052F800155017261650182218500AE11A0E175C76
:10530800D8A089EF29F08CEF29F0010E8DEF29F054
:10531800000E196E1A6A19501A10D8B496EF29F0AF
:1053280098EF29F09EEF29F05F0E1314136E146A9C
:10533800A2EF29F013C013F014C014F0120011C02A
:105348000DF012C00EF0ABEC15F00EBEB0EF29F068
:10535800AEEF29F0B2EF29F0D1EF29F0040E1124B5
:10536800136E000E1220146E13C0F6FF14C0F7FF60
:105378000800F5CF15F0020E1124166E000E12204B
:10538800176E16C0F6FF17C0F7FF0900F5CFD9FF53
:105398000900F5CFDAFF1550DF12120067506810C8
:1053A800D8A4D9EF29F0DBEF29F0E1EF29F067C0A5
:1053B80027F068C028F0E7EF29F0FF0E6724276E72
:1053C800FF0E6820286E26C0BDF1000E0101BE6FD9
:1053D80024C019F025C01AF0BD0E1B6E010E1C6EFC
:1053E80027C01DF028C01EF0CDEC23F019C024F012
:1053F8001AC025F012000001CF51D011D8B407EF20
:105408002AF009EF2AF013EF2AF020EE28F0CD5108
:10541800D926CE51DA22010EDF6E1BEF2AF020EEDC
:1054280028F0CD51D926CE51DA22000EDF6ECDC03C
:10543800BBF0CEC0BCF0A7EC0CF0CDC0BBF0CEC02A
:10544800BCF009EC08F01200010E136E200E0D18C6
:105458000E10D8B432EF2AF034EF2AF04DEF2AF0CC
:10546800F70E0F6EFF0E106E0DC011F00EC012F089
:105478000F50112610501222125009E1050E115C2E
:10548800D8A049EF2AF04BEF2AF04DEF2AF0000E92
:10549800136E13C00DF00E6A12000DC00FF00EC08F
:1054A80010F059EF2AF00D4A0E2A0DC0F6FF0EC073
:1054B800F7FFF86A050EF76403D00800F55005D029
:1054C800F6CFE1FFF7CFE2FFE7500009D8A46FEF6E
:1054D8002AF071EF2AF057EF2AF00F500D5C0D6E8D
:1054E80010500E580E6E12006F506D1809E1705072
:1054F8006E18D8B482EF2AF084EF2AF078EF2AF0F9
:10550800000E6F24D96E010E7020DA6EDF500F6E18
:105518000F50116E126A010E6F240F6E000E70206C
:10552800106E7F0E0F146F6E706A11C00DF012C0EE
:105538000EF01200CDC0BBF0CEC0BCF02EEC24F0B3
:10554800CDC0BBF0CEC0BCF0A7EC0CF0CDC0BBF01A
:10555800CEC0BCF078EC14F0CDC0BBF0CEC0BCF02F
:1055680009EC08F0CDC0BBF0CEC0BCF090EC1DF04B
:10557800CDC0BBF0CEC0BCF0BBEC20F012001A0EC0
:10558800F66E7A0EF76E0800F5CF0FF0160EF66E6F
:105598007A0EF76E0900F5CF10F00900F5CF11F07B
:1055A80010C0D9FF11C0DAFFDF500F140009D8A4CA
:1055B800E0EF2AF0E3EF2AF0010EE4EF2AF0000E04
:1055C8000D6E0E6A1200040E185CD8B0EEEF2AF0C9
:1055D800F0EF2AF001EF2BF0D8901734F66E18345C
:1055E800F76E7F0EF626710EF7220900F5CF19F037
:1055F8000A00F5CF1AF005EF2BF0000E1A6E000E18
:10560800196E19C017F01AC018F01200116E115057
:10561800D8A411EF2BF013EF2BF02BEF2BF0115038
:10562800040DF20EF324D96E000EF420DA6E0FC0CA
:10563800DEFF10C0DDFF1150040DF00EF324D96E0B
:10564800000EF420DA6E0DC0DEFF0EC0DDFF120082
:10565800000E186E000E176E3DEF2BF016C00EF000
:105668000F6A14C010F015C011F013EC2CF0174A93
:10567800182A17501224D96E18501320DA6EDF50EA
:10568800166E1650D8A44BEF2BF04DEF2BF032EFDF
:105698002BF0120020BE5BEF2BF0205006E11F0418
:1056A800D8B059EF2BF05BEF2BF069EF2BF01FC050
:1056B80021F020C022F0211E221E214A222A21C0C8
:1056C8001FF022C020F06DEF2BF01FC01FF020C08C
:1056D80020F01200D7C0EBF0D8C0ECF0860E000125
:1056E800CF6F010ED06FEBC0D1F0E9C0D2F0000E41
:1056F800D46F010ED36FE0EC24F0860E0001976F93
:105708007F0E986FEBC099F0ECC09AF0FFEC2BF08D
:1057180012009F0E0F6EFF0E106E200E0D10116EF0
:10572800000E0E10126E0F50112610501222125039
:105738000AE11A0E115CD8A0A4EF2BF0A7EF2BF00A
:10574800010EA8EF2BF0000E0D6E0E6A12009F0ED0
:105758000F6EFF0E106E0DC011F00EC012F00F503C
:1057680011261050122212500AE11A0E115CD8A00C
:10577800C0EF2BF0C3EF2BF0010EC4EF2BF0000E9F
:105788000D6E0E6A1200BF0E0F6EFF0E106E0DC06A
:1057980011F00EC012F00F501126105012221250A4
:1057A8000AE11A0E115CD8A0DCEF2BF0DFEF2BF02A
:1057B800010EE0EF2BF0000E0D6E0E6A1200D00EF7
:1057C8000F6EFF0E106E0DC011F00EC012F00F50CC
:1057D80011261050122212500AE10A0E115CD8A0AC
:1057E800F8EF2BF0FBEF2BF0010EFCEF2BF0000E87
:1057F8000D6E0E6A1200990E0001B96F000EBA6F95
:10580800000E5F6E000E606E97C061F098C062F087
:10581800B90E636E000E646E43EC29F012000A0E96
:105828000E180F10D8A41BEF2CF01DEF2CF020EF52
:105838002CF00D0E56EC2CF00E5056EC2CF00EC041
:105848000EF00F6A12000D500F02F3CF11F0F4CFD3
:1058580012F00D501002F35012260E500F02F350A2
:10586800122611C00DF012C00EF012006F506D1804
:1058780007E170506E18D8A444EF2CF047EF2CF0D5
:10588800010E48EF2CF0000E0D6E0E6A120012C0C9
:105898000EF013C00FF0000E106E000E116E13EC18
:1058A8002CF012000D6EACA25CEF2CF05EEF2CF029
:1058B80057EF2CF00DC0ADFF1200C19AC1980F0E22
:1058C800C112C08E380EC012070EC012C28012005C
:1058D80077EC26F0726E7250A8EC19F012000A00EC
:0F58E800010005000A00FF286E756C6C2900FF97
:10717E0000DAFDDAFDDAFDDAFDDAFDDAFDDAFDDA46
:10718E00FDDAFDDAFDDAFDDAFDDAFDDAFDDAFDDA39
:10719E00FDDAFDDAFDDAFDDAFDDAFDDAFDDAFDDA29
:1071AE00FDDAFDDAFDDAFDDAFDDAFDDAFDDAFDDA19
:1071BE00FDDAFDDAFDDAFDDAFDDAFDDAFDDAFDDA09
:10743E00FDDAFDDAFDDAFDDAFDDDFDE0FDE4FDE865
:10744E00FDEBFDEFFDF2FDF6FDFAFDFDFD01FE0586
:10745E00FE08FE0CFE0FFE13FE16FE1AFE1EFE2189
:10746E00FE25FE28FE2CFE2FFE33FE37FE3AFE3E94
:10747E00FE41FE45FE48FE4CFE50FE53FE57FE5AA0
:10748E00FE5EFE61FE65FE69FE6CFE70FE73FE77AB
:10749E00FE7AFE7EFE81FE85FE88FE8CFE8FFE93BA
:1074AE00FE96FE9AFE9DFEA1FEA5FEA8FEACFEAFC8
:1074BE00FEB3FEB6FEBAFEBDFEC1FEC4FEC8FECBD6
:1074CE00FECFFED4FED6FED9FEDDFEE0FEE4FEE7E4
:1074DE00FEEAFEEEFEF1FEF5FEF8FEFCFEFFFE03FA
:1074EE00FF06FF0AFF0DFF10FF14FF17FF1BFF1E05
:1074FE00FF22FF25FF29FF2CFF30FF33FF38FF3A15
:10750E00FF3DFF41FF44FF48FF4BFF4EFF52FF552B
:10751E00FF59FF5CFF5FFF63FF66FF6AFF6DFF7140
:10752E00FF74FF77FF7BFF7EFF82FF85FF88FF8C56
:10753E00FF8FFF93FF96FF99FF9CFFA0FFA4FFA76D
:10754E00FFABFFAEFFB1FFB5FFB8FFBCFFBFFFC380
:10755E00FFC6FFC9FFCDFFD0FFD4FFD7FFDAFFDE96
:10756E00FFE1FFE5FFE8FFECFFEFFFF2FFF6FFF9AB
:10757E00FFFDFF0000040007000A000E00110015B9
:10758E000018001C001F002200260029002D0030CC
:10759E0000340037003B003E004100450048004CDF
:1075AE00004F00530056005A005D006000640067F3
:1075BE00006B006E007200750079007C007F008306
