:020000040000FA
:0400000007EF00F016
:100008007382B5ED24F018EF20F00F0EC112190E0F
:10001800F66E7D0EF76E0800F5CF0DF0170EF66E32
:100028007D0EF76E0900F5CFD9FF0900F5CFDAFF8D
:100038000D50DF12140EF66E7D0EF76E0800F550A7
:10004800FF0A0D6E100EF66E7D0EF76E0900F5CFE5
:100058000EF00900F5CF0FF00EC0D9FF0FC0DAFF80
:100068000D50DF16140EF66E7D0EF76E0800F55073
:10007800FF0A0D6E120EF66E7D0EF76E0900F5CFB3
:10008800D9FF0900F5CFDAFF0D50DF160F0EF66E17
:100098007D0EF76E0800F550FF0A0D6E0B0EF66E1A
:1000A8007D0EF76E0900F5CF0EF00900F5CF0FF0C1
:1000B8000EC0D9FF0FC0DAFF0D50DF160F0EF66E17
:1000C8007D0EF76E0800F550FF0A0D6E0D0EF66EE8
:1000D8007D0EF76E0900F5CFD9FF0900F5CFDAFFDD
:1000E8000D50DF160A0EF66E7D0EF76E0800F550FD
:1000F800FF0A0D6E060EF66E7D0EF76E0900F5CF3F
:100108000EF00900F5CF0FF00EC0D9FF0FC0DAFFCF
:100118000D50DF160A0EF66E7D0EF76E0800F550CC
:10012800FF0A0D6E080EF66E7D0EF76E0900F5CF0C
:10013800D9FF0900F5CFDAFF0D50DF16050EF66E70
:100148007D0EF76E0800F550FF0A0D6E010EF66E73
:100158007D0EF76E0900F5CF0EF00900F5CF0FF010
:100168000EC0D9FF0FC0DAFF0D50DF16050EF66E70
:100178007D0EF76E0800F550FF0A0D6E030EF66E41
:100188007D0EF76E0900F5CFD9FF0900F5CFDAFF2C
:100198000D50DF16000EF66E7D0EF76E0800F5CFD7
:1001A8000DF0FE0EF66E7C0EF76E0900F5CFD9FF46
:1001B8000900F5CFDAFF0D50DF12000EF66E7D0E46
:1001C800F76E0800F5CF0DF0FC0EF66E7C0EF76E9C
:1001D8000900F5CF0EF00900F5CF0FF00EC0D9FFDA
:1001E8000FC0DAFF0D50DF12FB0EF66E7C0EF76EB5
:1001F8000800F5CF0DF0F90EF66E7C0EF76E0900CB
:10020800F5CFD9FF0900F5CFDAFF0D50DF12FB0E4D
:10021800F66E7C0EF76E0800F5CF0DF0F70EF66E51
:100228007C0EF76E0900F5CF0EF00900F5CF0FF040
:100238000EC0D9FF0FC0DAFF0D50DF12F19EE20E9B
:10024800F66E7C0EF76E0800F5CF0DF0E00EF66E38
:100258007C0EF76E0900F5CFD9FF0900F5CFDAFF5C
:100268000D50DF12E20EF66E7C0EF76E0800F5CF29
:100278000DF0DE0EF66E7C0EF76E0900F5CF0EF06F
:100288000900F5CF0FF00EC0D9FF0FC0DAFF0D50EF
:10029800DF12DD0EF66E7C0EF76E0800F5CF0DF05E
:1002A800DB0EF66E7C0EF76E0900F5CFD9FF09005C
:1002B800F5CFDAFF0D50DF12DD0EF66E7C0EF76E0D
:1002C8000800F5CF0DF0D90EF66E7C0EF76E09001A
:1002D800F5CF0EF00900F5CF0FF00EC0D9FF0FC013
:1002E800DAFF0D50DF12D80EF66E7C0EF76E08009E
:1002F800F550FF0A0D6ED40EF66E7C0EF76E0900EF
:10030800F5CF0EF00900F5CF0FF00EC0D9FF0FC0E2
:10031800DAFF0D50DF16D80EF66E7C0EF76E080069
:10032800F550FF0A0D6ED60EF66E7C0EF76E0900BC
:10033800F5CFD9FF0900F5CFDAFF0D50DF16D30E40
:10034800F66E7C0EF76E0800F550FF0A0D6ECF0EA4
:10035800F66E7C0EF76E0900F5CF0EF00900F5CFAA
:100368000FF00EC0D9FF0FC0DAFF0D50DF16D30E05
:10037800F66E7C0EF76E0800F550FF0A0D6ED10E72
:10038800F66E7C0EF76E0900F5CFD9FF0900F5CFA0
:10039800DAFF0D50DF16C40EF66E7C0EF76E0800FD
:1003A800F550FF0A0D6EC00EF66E7C0EF76E090052
:1003B800F5CF0EF00900F5CF0FF00EC0D9FF0FC032
:1003C800DAFF0D50DF16C40EF66E7C0EF76E0800CD
:1003D800F550FF0A0D6EC20EF66E7C0EF76E090020
:1003E800F5CFD9FF0900F5CFDAFF0D50DF16CE0E95
:1003F800F66E7C0EF76E0800F5CF0DF0CA0EF66E9D
:100408007C0EF76E0900F5CF0EF00900F5CF0FF05E
:100418000EC0D9FF0FC0DAFF0D50DF12CE0EF66EF8
:100428007C0EF76E0800F550FF0A0D6ECC0EF66EC6
:100438007C0EF76E0900F5CFD9FF0900F5CFDAFF7A
:100448000D50DF16C90EF66E7C0EF76E0800F550DB
:10045800FF0A0D6EC50EF66E7C0EF76E0900F5CF1D
:100468000EF00900F5CF0FF00EC0D9FF0FC0DAFF6C
:100478000D50DF16C90EF66E7C0EF76E0800F550AB
:10048800FF0A0D6EC70EF66E7C0EF76E0900F5CFEB
:10049800D9FF0900F5CFDAFF0D50DF16BA0EF66E58
:1004A8007C0EF76E0800F5CF0DF0B80EF66E7C0ED8
:1004B800F76E0900F5CFD9FF0900F5CFDAFF0D5027
:1004C800DF12B50EF66E7C0EF76E0800F5CF0DF054
:1004D800B30EF66E7C0EF76E0900F5CFD9FF090052
:1004E800F5CFDAFF0D50DF1212004D50D96EDA6ADF
:1004F800DECFF6FFDDCFF7FF0800F550250AD8A4B8
:10050800D0D14D50D96EDA6ADE2A000EDD22000EF7
:10051800686E000E676E67C06BF068C06CF0696843
:100528006A684D50D96EDA6ADECFF6FFDDCFF7FF85
:100538000800F550640AD8B40CD04D50D96EDA6A68
:10054800DECFF6FFDDCFF7FF0800F550690AD8A423
:1005580036D04D50D96EDA6ADE2A000EDD224E50B2
:10056800D96EDA6ADF50DF2ADF2AD96EDA6ADECF7F
:10057800BBF0DDCFBCF0000EBCBFFF0EBD6FBE6F81
:10058800BF6FC06FC16FC26F4BC027F04CC028F05F
:10059800BBC029F0BCC02AF0BDC02BF0BEC02CF0F7
:1005A800BFC02DF0C0C02EF0C1C02FF0C2C030F0C7
:1005B800C8EC0EF027C04BF028C04CF012004D508C
:1005C800D96EDA6ADECF0DF0DDCF0EF0ED0E0F6ECC
:1005D8007F0E106E000E126E020E116E70EC1FF080
:1005E8000D500E10D8B415D04D50D96EDA6ADECF42
:1005F8000DF0DDCF0EF0F00E0F6E7F0E106E000EB8
:10060800126E020E116E70EC1FF00D500E10D8A471
:1006180055D04D50D96EDA6A020EDE26000EDD2264
:100628004E50D96EDA6ADFCF4FF0040EDF264F50F6
:10063800D96EDA6ADECF50F0DECF51F0DECF52F05D
:10064800DECF53F050C054F051C055F052C056F0B0
:1006580053C057F0586A57BE586858C059F058C028
:100668005AF058C05BF054C0BBF055C0BCF056C03F
:10067800BDF057C0BEF058C0BFF059C0C0F05AC056
:10068800C1F05BC0C2F04BC027F04CC028F0BBC023
:1006980029F0BCC02AF0BDC02BF0BEC02CF0BFC0F2
:1006A8002DF0C0C02EF0C1C02FF0C2C030F0C8EC91
:1006B8000EF027C04BF028C04CF012004D50D96EF8
:1006C800DA6ADECFF6FFDDCFF7FF0800F550730AD0
:1006D800D8A421D04D50D96EDA6ADE2A000EDD2268
:1006E8004E50D96EDA6A020EDF26DF5CD96EDA6AFE
:1006F800DECFB9F0DECFBAF04BC012F04CC013F029
:10070800B9C014F0BAC015F04BEC18F012C04BF099
:1007180013C04CF012004D50D96EDA6ADECFF6FFE6
:10072800DDCFF7FF0800F550750AD8A438D04D5032
:10073800D96EDA6ADE2A000EDD224E50D96EDA6AE8
:10074800DF50DF2ADF2AD96EDA6ADECF4FF0DDCF3D
:1007580050F04FC0C3F050C0C4F00001C56BC66B69
:10076800C76BC86BC96BCA6B4BC026F04CC027F06F
:10077800C3C028F0C4C029F0C5C02AF0C6C02BF0F9
:10078800C7C02CF0C8C02DF0C9C02EF0CAC02FF0C9
:100798008EEC15F026C04BF027C04CF012004D50DF
:1007A800D96EDA6ADECF0DF0DDCF0EF0F30E0F6EE4
:1007B8007F0E106E000E126E020E116E70EC1FF09E
:1007C8000D500E10D8A441D04D50D96EDA6A020EE1
:1007D800DE26000EDD224E50D96EDA6ADFCF4FF0EA
:1007E800040EDF264F50D96EDA6ADECF50F0DECF26
:1007F80051F0DECF52F0DECF53F050500001C36FFE
:100808005150C46F5250C56F5350C66FC76BC86BF9
:10081800C96BCA6B4BC026F04CC027F0C3C028F088
:10082800C4C029F0C5C02AF0C6C02BF0C7C02CF040
:10083800C8C02DF0C9C02EF0CAC02FF08EEC15F03C
:1008480026C04BF027C04CF012004D50D96EDA6A22
:10085800DECFF6FFDDCFF7FF0800F550250AD8A454
:1008680015D04D50D96EDA6ADE2A000EDD22000E50
:100878000F6E250E0E6E4BC010F04CC011F07CECC4
:1008880027F0000E4C6E010E4B6E12004D50D96EC3
:10089800DA6ADE2A000EDD22000E4C6E000E4B6E68
:1008A80012004D50D96EDA6ADECFF6FFDDCFF7FFC2
:1008B8000800F5500E6E0F6A4BC010F04CC011F0D6
:1008C8007CEC27F04D50D96EDA6ADE2A000EDD2264
:1008D800D8D73FC00DF040C00EF00F6A106A000E66
:1008E800ABEC17F00DC026F00EC027F00FC028F0B3
:1008F80010C029F0000E2A6E000E2B6E7A0E2C6E98
:10090800440E2D6E84EC0DF026C051F027C052F035
:1009180028C053F029C054F0000E116E400E126E1C
:100928004E0E136E450E146E51C00DF052C00EF0EF
:1009380053C00FF054C010F0C9EC07F00DC026F0FA
:100948000EC027F00FC028F010C029F051C021F0C8
:1009580052C022F053C023F054C024F0330E1D6E51
:10096800330E1E6EA30E1F6E400E206E03EC26F093
:100978001DC02AF01EC02BF01FC02CF020C02DF087
:1009880084EC0DF026C055F027C056F028C057F06B
:1009980029C058F09CC10DF09DC10EF09EC10FF00A
:1009A8009FC110F055C011F056C012F057C013F097
:1009B80058C014F06EEC1CF0D8A005D0000E406EA4
:1009C800000E3F6E1200000E5A6E000E596E26D0B1
:1009D8009C0E416E010E426ED8905934D96E5A342D
:1009E800DA6ED890D936DA364150D9264250DA2212
:1009F800DECF0DF0DECF0EF0DECF0FF0DECF10F041
:100A080055C011F056C012F057C013F058C014F07A
:100A18006EEC1CF0D8B026D0594A5A2A9C0E416E6A
:100A2800010E426ED8905934D96E5A34DA6ED89085
:100A3800D936DA364150D9264250DA22DECF0DF0C7
:100A4800DECF0EF0DECF0FF0DECF10F0000E116E0D
:100A5800000E126E800E136EBF0E146EC1EC21F0E4
:100A6800D8A0B6D79C0E416E010E426ED89059346C
:100A7800D96E5A34DA6ED890D936DA364150D9263A
:100A88004250DA22DECF0DF0DECF0EF0DECF0FF0CF
:100A9800DECF10F0000E116E000E126E800E136E77
:100AA800BF0E146EC1EC21F0D8B0BDD09C0E416EC3
:100AB800010E426ED8905934D96E5A34DA6ED890F5
:100AC800D936DA364150D9264250DA22DECF21F023
:100AD800DECF22F0DECF23F0DECF24F0FC0E436E13
:100AE800FF0E446E9C0E456E010E466E4350452621
:100AF80044504622D8905934D96E5A34DA6ED89078
:100B0800D936DA364550D9264650DA22DECF1DF0DE
:100B1800DECF1EF0DECF1FF0DECF20F003EC26F094
:100B28001DC02AF01EC02BF01FC02CF020C02DF0D5
:100B38009C0E476E010E486ED8905934D96E5A34BF
:100B4800DA6ED890D936DA364750D9264850DA22A4
:100B5800DECF21F0DECF22F0DECF23F0DECF24F08F
:100B680055C01DF056C01EF057C01FF058C020F0E9
:100B780003EC26F01DC026F01EC027F01FC028F089
:100B880020C029F084EC0DF026C04DF027C04EF0AF
:100B980028C04FF029C050F059C00DF05AC00EF0CF
:100BA800000E0EBEFF0E0F6E106E010EABEC17F0AE
:100BB8000DC01DF00EC01EF00FC01FF010C020F0B9
:100BC8004DC021F04EC022F04FC023F050C024F099
:100BD80003EC26F01DC049F01EC04AF01FC04BF0C0
:100BE80020C04CF0000E116E000E126E200E136E17
:100BF800410E146E49C00DF04AC00EF04BC00FF004
:100C08004CC010F0C9EC07F00DC026F00EC027F05C
:100C18000FC028F010C029F00AEC1EF026C03FF0E3
:100C280027C040F01200000E406E6F0E3F6E12009B
:100C380019C0D9FF1AC0DAFFDE50DE10D8B412008E
:100C4800020E216E000E226E000E236E000E246E20
:100C580020EE18F01950D9261A50DA22DF501B6EF0
:100C6800010E1B161BC01CF01D6A1E6A1F6A030EAC
:100C7800D8901C361D361E361F36E82EF9D71C5064
:100C880021121D5022121E5023121F50241220EE32
:100C980017F01950D9261A50DA22DF501B6E010EB0
:100CA8001B161BC01CF01D6A1E6A1F6A040ED89012
:100CB8001C361D361E361F36E82EF9D71C50211259
:100CC8001D5022121E5023121F50241220EE16F01F
:100CD8001950D9261A50DA22DF501B6E010E1B1646
:100CE8001BC01CF01D6A1E6A1F6A050ED8901C36B0
:100CF8001D361E361F36E82EF9D71C5021121D50FE
:100D080022121E5023121F50241220EE15F01950E3
:100D1800D9261A50DA22DF501B6E010E1B161BC093
:100D28001CF01D6A1E6A1F6A060ED8901C361D36F6
:100D38001E361F36E82EF9D71C5021121D502212DC
:100D48001E5023121F50241220EE14F01950D926D9
:100D58001A50DA22DF501B6E010E1B161BC01CF046
:100D68001D6A1E6A1F6A070ED8901C361D361E366D
:100D78001F36E82EF9D71C5021121D5022121E5082
:100D880023121F50241220EE13F01950D9261A509E
:100D9800DA22DF501B6E010E1B161BC01CF01D6AE9
:100DA8001E6A1F6A1EC01FF01DC01EF01CC01DF069
:100DB8001C6A1C5021121D5022121E5023121F5053
:100DC800241220EE12F01950D9261A50DA22DF50D8
:100DD8001B6E0F0E1B161BC01CF01D6A1E6A1F6AB5
:100DE800090ED8901C361D361E361F36E82EF9D748
:100DF8001C5021121D5022121E5023121F50241263
:100E080020EE11F01950D9261A50DA22DF501B6E45
:100E1800010E1B161BC01CF01D6A1E6A1F6A0D0EF0
:100E2800D8901C361D361E361F36E82EF9D71C50B2
:100E380021121D5022121E5023121F50241220EE80
:100E48000FF01950D9261A50DA22DECF1BF0DDCF69
:100E58001CF0FF0E1B141D6E030E1C141E6E1F6A61
:100E6800206A0E0ED8901D361E361F362036E82E04
:100E7800F9D71D5021121E5022121F502312205044
:100E8800241220EE0EF01950D9261A50DA22DF501B
:100E98001B6E010E1B161BC01CF01D6A1E6A1F6A02
:100EA8001CC01FF01E6A1D6A1C6A1C5021121D50AE
:100EB80022121E5023121F50241220EE0DF019503A
:100EC800D9261A50DA22DF501B6E010E1B161BC0E2
:100ED8001CF01D6A1E6A1F6A190ED8901C361D3632
:100EE8001E361F36E82EF9D71C5021121D5022122B
:100EF8001E5023121F50241220EE0CF01950D92630
:100F08001A50DA22DF501B6E070E1B161BC01CF08E
:100F18001D6A1E6A1F6A1A0ED8901C361D361E36A8
:100F28001F36E82EF9D71C5021121D5022121E50D0
:100F380023121F50241220EE0BF01950D9261A50F4
:100F4800DA22DF501B6E030E1B161BC01CF01D6A35
:100F58001E6A1F6A1D0ED8901C361D361E361F3697
:100F6800E82EF9D71C5021121D5022121E502312B0
:100F78001F50241221C00DF022C00EF023C00FF024
:100F880024C010F0B8EC14F012001050800B196E49
:100F9800105010241B6E0FBE1B801B50D8B40DD0F0
:100FA8001B28D8A408D0000E0D6E000E0E6E000E81
:100FB8000F6E000E106E0F8E08D0000E0D6E000E14
:100FC8000E6E000E0F6E000E106E1450800B191A64
:100FD800145014241A6E13BE1A801A50D8B40DD0A7
:100FE8001A28D8A408D0000E116E000E126E000E3A
:100FF800136E000E146E138E08D0000E116E000EC4
:10100800126E000E136E000E146E1A50D8B403D070
:101018001B50D8A409D0000E0D6E000E0E6E000EE7
:101028000F6E000E106E120013500D02F3CF24F055
:10103800F4CF25F024501C6E1D6A1E6A1F6A2550C5
:10104800206E216A226A236A12500E02F3CF24F01E
:10105800F4CF25F024501C26000E1D221E221F222C
:1010680025502026000E21222222232211500F0271
:10107800F3CF24F0F4CF25F024501C26000E1D22B7
:101088001E221F2225502026000E21222222232242
:101098001EC01FF01DC01EF01CC01DF01C6A1150A0
:1010A8000E02F3CF24F0F4CF25F024501C2625504F
:1010B8001D22000E1E22000E1F2212500D02F3CF19
:1010C80024F0F4CF25F024501C2625501D22000EB4
:1010D8001E22000E1F221EC01FF01DC01EF01CC0C5
:1010E8001DF01C6A11500D02F3CF24F0F4CF25F047
:1010F80024501C2625501D22000E1E22000E1F22E1
:1011080013500E02F3CF24F0F4CF25F024502026FC
:1011180025502122000E2222000E232212500F02F7
:10112800F3CF24F0F4CF25F0245020262550212297
:10113800000E2222000E232213500F02F3CF24F0B8
:10114800F4CF25F02450156E2550166E176A186ACC
:1011580017C018F016C017F015C016F0156A15500C
:1011680020261650212217502222185023221F50C1
:101178002026000E2122222223221EC01FF01DC07D
:101188001EF01CC01DF01C6A1A501BC015F0166A10
:101198001526000E1622820E1524246EFF0E162028
:1011A800256E0FD0D89020362136223623361FBE22
:1011B8002080D8901C361D361E361F362406D8A02F
:1011C800250622AEEFD7000E1A6E1FAE17D0FF0EFF
:1011D8001C14156EFF0E1D14166EFF0E1E14176ECE
:1011E8007F0E1F14186E1550161017101810D8B44B
:1011F80003D0010E1A6E02D020B0FBD71A50D8B413
:101208001FD0010E2026000E21222222232223A0F5
:1012180017D020C015F021C016F022C017F023C047
:1012280018F01834183217321632153215C020F05B
:1012380016C021F017C022F018C023F0244A252A2E
:1012480025BE0DD0255003E12428D8A008D0000ED3
:10125800206E000E216E800E226E7F0E20D025BEDD
:1012680005D025500EE12404D8B00BD0000E206E16
:10127800000E216E000E226E000E236E000E196EF7
:101288000FD024C01BF0FF0E2016FF0E21167F0E74
:101298002216000E23161BB0228ED8901B30236E08
:1012A8001950231220C00DF021C00EF022C00FF0FB
:1012B80023C010F012001050800B196E105010242B
:1012C8001B6E0FBE1B801B50D8B40DD01B28D8A492
:1012D80008D0000E0D6E000E0E6E000E0F6E000E82
:1012E800106E0F8E06D0000E0D6E000E0E6E000EE4
:1012F8000F6E000E106E1450800B1A6E19501A18CB
:10130800D8A4198C145014241A6E13BE1A801A50BB
:10131800D8B40DD01A28D8A408D0000E116E000E2B
:10132800126E000E136E000E146E138E06D0000E91
:10133800116E000E126E000E136E000E146E1B500E
:101348001A5CD8B022D019AC02D0800E191A1BC072
:101358001CF01AC01BF01CC01AF00DC01CF011C004
:101368000DF01CC011F00EC01CF012C00EF01CC015
:1013780012F00FC01CF013C00FF01CC013F010C007
:101388001CF014C010F01CC014F0000E1C6E1B5092
:101398001AC015F0166A155E000E165A16BE2CD025
:1013A800165004E11A0E155CD8A026D00D500E1068
:1013B8000F101010D8B402D0010E01D0000E1C6E10
:1013C800000E0D6E000E0E6E000E0F6E000E106EEB
:1013D8001AC01BF015D01CA005D0D8901C300109EC
:1013E8001C6E02D0D8901C320DB01C8E10341032F6
:1013F8000F320E320D321B2A1A501B5CD8A0EBD7C5
:1014080019BC28D01B50D8A409D0000E0D6E000EB0
:101418000E6E000E0F6E000E106E120011500D268B
:1014280012500E2213500F221450102210A071D007
:101438001CA005D0D8901C3001091C6E02D0D89091
:101448001C320DB01C8E103410320F320E320D3299
:101458001B2A5FD011500D5C12500E5813500F58B4
:101468001050800A156E1450800A1558D8B025D02F
:101478000D50115C156E0E501258166E0F50135801
:10148800176E10501458186EFF0E15240D6EFF0EAF
:1014980016200E6EFF0E17200F6EFF0E1820106E0E
:1014A800800E191A1C6C1C50D8A40FD0010E0D26E2
:1014B800000E0E220F22102208D011500D5E12507D
:1014C8000E5A13500F5A1450105A0D500E100F1078
:1014D8001010D8A41CD01C50D8A419D0000E0D6E22
:1014E800000E0E6E000E0F6E000E106E1200D890D9
:1014F8000D360E360F3610361CBE0D801CA002D0DD
:10150800D88001D0D8901C361B50D8A41B060FAE2B
:10151800EED7000E1A6E1CAE0BD01CC015F07F0E55
:101528001516D8B403D0010E1A6E02D00DB0FBD731
:101538001A50D8B420D0010E0D26000E0E220F220C
:10154800102210A018D00DC015F00EC016F00FC054
:1015580017F010C018F01834183217321632153236
:1015680015C00DF016C00EF017C00FF018C010F01F
:101578001B28D8A41B2A1B28D8B403D01B50D8A4D6
:101588000DD0000E0D6E000E0E6E000E0F6E000ECA
:10159800106E1B50D8A402D0000E196E1BA002D0EA
:1015A8000F8E01D00F9ED8901B30106E19BE108E72
:1015B8000DC00DF00EC00EF00FC00FF010C010F0EF
:1015C800120020EE2BF0D551D926D651DA22DECFE3
:1015D8000DF0DECF0EF0DECF0FF0DECF10F020EEF4
:1015E8002FF0D551D926D651DA22DECF11F0DECF31
:1015F80012F0DECF13F0DECF14F048EC22F00DC06D
:10160800DBF00EC0DCF0000120EE2BF0D551D9261E
:10161800D651DA22DECF0DF0DECF0EF0DECF0FF09E
:10162800DECF10F020EE2FF0D551D926D651DA2290
:10163800DECF11F0DECF12F0DECF13F0DECF14F0E4
:1016480053EC24F00D500E100F101010D8B424D005
:101658001A0E0001CB6F7D0ECC6F20EE2FF0D55106
:10166800D926D651DA22DECFCDF0DECFCEF0DECFCE
:10167800CFF0DECFD0F020EE2BF0D551D926D651C1
:10168800DA22DECFD1F0DECFD2F0DECFD3F0DECF5C
:10169800D4F060EC27F012000001DCBF27D0040E64
:1016A800DC5DD8A023D0640ECB6F7D0ECC6F20EE0E
:1016B8002FF0D551D926D651DA22DECFCDF0DECFA4
:1016C800CEF0DECFCFF0DECFD0F020EE2BF0D5512C
:1016D800D926D651DA22DECFD1F0DECFD2F0DECF56
:1016E800D3F0DECFD4F060EC27F01200DBB11CD0D1
:1016F800DBC00DF0DCC00EF0000E106E020E0F6E97
:1017080006EC22F020EE0FF0D551D926D651DA2278
:101718000DC0DEFF0EC0DDFF20EE0EF0D551D9263C
:10172800D651DA22010E11D020EE0FF0D551D9266C
:10173800D651DA22DBC0DEFFDCC0DDFF20EE0EF082
:10174800D551D926D651DA22000EDF6E20EE19F0D7
:10175800D551D926D651DA22000EDF6E20EE2FF0B1
:10176800D551D926D651DA22FF0EDE240D6EFF0E92
:10177800DE200E6EFF0EDE200F6EFF0EDE20106ED6
:101788007D0E116E000E126E000E136E000E146E9A
:1017980048EC22F0010E0D240001D76F000E0E2038
:1017A800D86F000E0F20D96F000E1020DA6FDA51B3
:1017B800D91103E1D805D8A031D020EE19F0D551C0
:1017C800D926D651DA22010EDF6E20EE2FF0D55140
:1017D800D926D651DA22FF0EDE240D6EFF0EDE204A
:1017E8000E6EFF0EDE200F6EFF0EDE20106EFA0E5C
:1017F800116E000E126E000E136E000E146E48EC81
:1018080022F0010E0D240001D76F000E0E20D86FB4
:10181800000E0F20D96F000E1020DA6FDA51D9119F
:1018280003E1D805D8A015D0AC0ECB6F7D0ECC6FD8
:1018380020EE2FF0D551D926D651DA22DECFCDF0C1
:10184800DECFCEF0DECFCFF0DECFD0F060EC27F0E9
:10185800120020EE22F0D551D926D651DA22D7C06F
:10186800DFFF120019C0D9FF1AC0DAFFDE50DE1000
:10187800D8B41200040E206E000E216E000E226EE7
:10188800000E236E20EE29F01950D9261A50DA22BC
:10189800DF501B6E030E1B161BC01CF01D6A1E6A50
:1018A8001F6A030ED8901C361D361E361F36E82ECA
:1018B800F9D71C5020121D5021121E5022121F5001
:1018C800231220EE28F01950D9261A50DA22DF50B8
:1018D8001B6E010E1B161BC01CF01D6A1E6A1F6AB8
:1018E800050ED8901C361D361E361F36E82EF9D741
:1018F8001C5020121D5021121E5022121F5023125C
:1019080020EE27F01950D9261A50DA22DF501B6E24
:10191800030E1B161BC01CF01D6A1E6A1F6A060EEA
:10192800D8901C361D361E361F36E82EF9D71C50A7
:1019380020121D5021121E5022121F50231220EE79
:1019480026F01950D9261A50DA22DF501B6E010EE4
:101958001B161BC01CF01D6A1E6A1F6A1EC01FF0E2
:101968001DC01EF01CC01DF01C6A1C5020121D500A
:1019780021121E5022121F50231220EE25F019505A
:10198800D9261A50DA22DF501B6E010E1B161BC017
:101998001CF01D6A1E6A1F6A090ED8901C361D3677
:1019A8001E361F36E82EF9D71C5020121D50211262
:1019B8001E5022121F50231220EE24F01950D9264F
:1019C8001A50DA22DF501B6E010E1B161BC01CF0CA
:1019D8001D6A1E6A1F6A0A0ED8901C361D361E36EE
:1019E8001F36E82EF9D71C5020121D5021121E5008
:1019F80022121F50231220EE23F01950D9261A5014
:101A0800DA22DF501B6E010E1B161BC01CF01D6A6C
:101A18001E6A1F6A0B0ED8901C361D361E361F36DE
:101A2800E82EF9D71C5020121D5021121E502212E8
:101A38001F50231220EE22F01950D9261A50DA220C
:101A4800DF501B6E1BC01CF01D6A1E6A1F6A0C0E3D
:101A5800D8901C361D361E361F36E82EF9D71C5076
:101A680020121D5021121E5022121F50231220EE48
:101A780021F01950D9261A50DA22DF501B6E070EB2
:101A88001B161BC01CF01D6A1E6A1F6A140ED89014
:101A98001C361D361E361F36E82EF9D71C5020126C
:101AA8001D5021121E5022121F50231220EE20F02A
:101AB8001950D9261A50DA22DF501B6E010E1B1658
:101AC8001BC01CF01D6A1E6A1F6A170ED8901C36B0
:101AD8001D361E361F36E82EF9D71C5020121D5011
:101AE80021121E5022121F50231220C00DF021C0B7
:101AF8000EF022C00FF023C010F0B8EC14F0120062
:101B08002950800B366E295029243D6E28BE3D8011
:101B18003D50D8B40DD03D28D8A408D0000E266E6C
:101B2800000E276E000E286E000E296E288E06D035
:101B3800000E266E000E276E000E286E000E296E0F
:101B48002D50800B361A2D502D243E6E2CBE3E8013
:101B58003E50D8B40DD03E28D8A408D0000E2A6E26
:101B6800000E2B6E000E2C6E000E2D6E2C8E06D0E5
:101B7800000E2A6E000E2B6E000E2C6E000E2D6EBF
:101B88002A502B102C102D10D8A417D0000E266E1A
:101B9800000E276E000E286E000E296E800E281289
:101BA8007F0E29123650291226C026F027C027F0AA
:101BB80028C028F029C029F012003D50D8A409D027
:101BC800000E266E000E276E000E286E000E296E7F
:101BD80012003E503DC02EF02F6A2E5E000E2F5A86
:101BE8007F0E2E24376E000E2F20386E26C032F05E
:101BF80027C033F028C034F029C035F0000E266E17
:101C0800000E276E000E286E000E296E000E396E2B
:101C1800000E3A6E000E3B6E000E3C6E000E3E6EDD
:101C280028D03E50D8B411D0D89032363336343616
:101C38003536D89026362736283629363CBE2680B3
:101C4800D89039363A363B363C362A50325C2B50DF
:101C580033582C5034582D503558D8A009D03C8CC6
:101C68002A50325E2B50335A2C50345A2D50355A44
:101C78003E2A190E3E64D5D7325033103410351031
:101C8800D8B411D039800FD0D890263627362836C8
:101C980029363CBE2680D89039363A363B363C3613
:101CA8003706D8A0380628AEEFD7000E3E6E3CAEF9
:101CB80017D0FF0E39142E6EFF0E3A142F6EFF0E3A
:101CC8003B14306E7F0E3C14316E2E502F103010A6
:101CD8003110D8B403D0010E3E6E02D026B0FBD727
:101CE8003E50D8B41FD0010E2626000E27222822E7
:101CF800292229A017D026C02EF027C02FF028C0EF
:101D080030F029C031F03134313230322F322E32B6
:101D18002EC026F02FC027F030C028F031C029F09F
:101D2800374A382A38BE10D0385003E13728D8A0AF
:101D38000BD0000E386E3768000E266E000E276E28
:101D4800000E286E000E296E38BE05D0385011E1FD
:101D58003704D8B00ED0000E386E000E376E000E65
:101D6800266E000E276E000E286E000E296E000EDD
:101D7800366E37C03DF03DA002D0288E01D0289E97
:101D8800D8903D30296E0ED729C041F02AC042F0C4
:101D98002BC043F02CC044F02DC045F02EC046F0B7
:101DA8002FC047F030C048F048AE02D0010E01D035
:101DB800000E3F6E406A3F504010D8B410D0481E05
:101DC800471E461E451E441E431E421E416C000E01
:101DD80042224322442245224622472248226AAE12
:101DE8006B926ABE05D06A5008E16904D8B005D084
:101DF800000E3C6E010E3B6E04D069C03BF06AC019
:101E08003CF067C03DF068C03EF03F504010D8A499
:101E180002D06BA403D03D06D8A03E06000E4A6E41
:101E28001F0E496E000E0001B86F7AD04906D8A07F
:101E38004A064950990FD96EDA6A41C00DF042C07E
:101E48000EF043C00FF044C010F045C011F046C07A
:101E580012F047C013F048C014F00A0E156E000EB9
:101E6800166E000E176E000E186E000E196E000E1C
:101E78001A6E000E1B6E000E1C6E82EC19F00DC05F
:101E880031F00EC032F00FC033F010C034F011C082
:101E980035F012C036F013C037F014C038F031C036
:101EA8001FF033C020F0FEEC26F01F50300FDF6E1D
:101EB8003B06D8A03C063D06D8A03E0641C00DF022
:101EC80042C00EF043C00FF044C010F045C011F0FE
:101ED80046C012F047C013F048C014F00A0E156E41
:101EE800000E166E000E176E000E186E000E196E9C
:101EF800000E1A6E000E1B6E000E1C6E07EC17F01B
:101F08000DC041F00EC042F00FC043F010C044F0C5
:101F180011C045F012C046F013C047F014C048F095
:101F28004ABE1FD04A5003E14904D8A01AD04150F4
:101F38004210431044104510461047104810D8A4CA
:101F480075D73CBE05D03C5002E13B04D8B06ED7F3
:101F58003EBE07D03E5003E13D04D8A002D06BB28C
:101F680065D73F504010D8A402D06BA415D04906BD
:101F7800D8A04A063F504010D8A404D0000E3A6EAC
:101F88002B0E03D0000E3A6E2D0E396E4950990F64
:101F9800D96EDA6A39C0DFFF27C018F028C019F0F7
:101FA8004950990F1A6E3DC01BF03EC01CF0F1EC71
:101FB80020F018C027F019C028F0120020EE33F0E6
:101FC8002250D9262350DA22DECF0DF0DECF0EF0D4
:101FD800DECF0FF0DECF10F020EE2FF02250D92602
:101FE8002350DA22DECF11F0DECF12F0DECF13F06D
:101FF800DECF14F048EC22F00DC02CF00EC02DF00E
:102008000FC02EF010C02FF020EE33F02250D9264A
:102018002350DA22DECF0DF0DECF0EF0DECF0FF048
:10202800DECF10F020EE2FF02250D9262350DA22EE
:10203800DECF11F0DECF12F0DECF13F0DECF14F0DA
:1020480053EC24F00DC024F00EC025F00FC026F08C
:1020580010C027F02F502E102D1004E1170E2C5C05
:10206800D8A012002F5004E12E04D8B0120001D0DD
:10207800120024C034F025C035F026C036F027C041
:1020880037F020EE2FF02250D9262350DA22DECF67
:1020980030F0DECF31F0DECF32F0DECF33F00AD0D1
:1020A800D8903732363235323432D89033323232F1
:1020B8003132303233503210F3E1100E315CD8B087
:1020C800EFD73450351036103710D8B44FD030C051
:1020D80016F031C017F032C018F033C019F034C010
:1020E8001AF035C01BF036C01CF037C01DF0D6EC16
:1020F8001CF016C028F017C029F018C02AF019C023
:102108002BF034C00DF035C00EF036C00FF037C0DC
:1021180010F028C011F029C012F02AC013F02BC00B
:1021280014F048EC22F00DC034F00EC035F00FC0AA
:1021380036F010C037F030C00DF031C00EF032C0AC
:102148000FF033C010F028C011F029C012F02AC0D7
:1021580013F02BC014F048EC22F00DC030F00EC084
:1021680031F00FC032F010C033F010D0000E346ED2
:10217800000E356E000E366E000E376E020E306E93
:10218800000E316E000E326E000E336E20EE02F03D
:102198002250D9262350DA222CC0DEFF2DC0DDFFC5
:1021A80020EE04F02250D9262350DA2234C0DEFF74
:1021B80035C0DDFF20EE09F02250D9262350DA225F
:1021C80030C0DEFF31C0DDFF20EE13F02250D926EB
:1021D8002350DA223450351036103710D8A402D0E4
:1021E800010E01D0000EDF6E1200000ED96F000E36
:1021F800D86F4FEC27F05BC0E0F05CC0E1F0890ECF
:102208000001CB6F7F0ECC6FE0C0CDF0E1C0CEF007
:1022180060EC27F0E1BF08D0E15104E14B0EE05D2E
:10222800D8A002D0010E8E6FE1BF06D0E15106E1C1
:10223800460EE05DD8B002D0000E8E6F17EC27F086
:1022480025C0E2F026C0E3F0970E0001CB6F7F0EA9
:10225800CC6FE2C0CDF0E3C0CEF060EC27F05C0EAE
:10226800E25D120EE359D8B002D0010E09D07D0EFE
:10227800E25D150EE359D8A002D0020E01D0000E7F
:102288008C6F9505D8A41CD02BEC27F025C0DEF068
:1022980026C0DFF0DEC01BF0DFC01CF014EC1AF023
:1022A800490ECB6F7F0ECC6FDEC0CDF0DFC0CEF015
:1022B8008F51CF6FD06BCFBFD00760EC27F002D023
:1022C800000E8D6F8E518B19D8B434D08E51D8A48E
:1022D80004D0E90EDA6F7F0E03D0F60EDA6F7F0EA8
:1022E800DB6F7D0ECB6F7E0ECC6FDAC0CDF0DBC01E
:1022F800CEF0E0C0CFF0E1C0D0F060EC27F08E5116
:10230800D8A404D0E90EDC6F7F0E03D0F60EDC6F84
:102318007F0EDD6F230ECB6F7F0ECC6FDCC0CDF050
:10232800DDC0CEF0E0C0CFF0E1C0D0F060EC27F027
:102338008EC08BF08C518A19D8B42AD08C05D8A4B9
:102348000AD09E0ECB6F7E0ECC6FE2C0CDF0E3C0FC
:10235800CEF060EC27F0020E8C19D8A40AD0BD0E7E
:10236800CB6F7E0ECC6FE2C0CDF0E3C0CEF060EC58
:1023780027F08C51D8A40AD05A0ECB6F7E0ECC6FA2
:10238800E2C0CDF0E3C0CEF060EC27F08CC08AF05C
:102398008E51D8A406D08C51D8A403D08D51D8B46E
:1023A80018D0C90EF66E7C0EF76E0800F5CFD5F082
:1023B800C50EF66E7C0EF76E0900F5CFD6F0090053
:1023C800F5CFD7F0D6C0D9FFD7C0DAFFD551DF1285
:1023D8001200C90EF66E7C0EF76E0800F550FF0A63
:1023E800D56FC50EF66E7C0EF76E0900F5CFD6F0E8
:1023F8000900F5CFD7F0D6C0D9FFD7C0DAFFD5513D
:10240800DF161200800E9B6EF20ED36ED3A4FED799
:10241800000E9D6E000EA06E09EC00F088EC27F00F
:10242800F20E116E7C0E126E68EC25F0E80E116E3D
:102438007C0E126E68EC25F0ED0E116E7C0E126E9D
:1024480068EC25F0E30E116E7C0E126E68EC25F038
:10245800800E1A6E250E1B6E000E1C6E000E1D6E71
:10246800B8EC23F0000EF66E7D0EF76E0800F5CF7F
:10247800E0F1FC0EF66E7C0EF76E0900F5CFE1F187
:102488000900F5CFE2F1E1C1D9FFE2C1DAFFDF507F
:102498000101E0150009D8A402D0010E01D0000EF8
:1024A800E56FE66B360E0001CB6F7E0ECC6FE40E47
:1024B800CD6F7F0ECE6FDF0ECF6F7F0ED06F60ECCB
:1024C80027F0E30ECB6F7D0ECC6FE40ECD6F7F0E41
:1024D800CE6FDF0ECF6F7F0ED06F60EC27F001015B
:1024E800E551E611D8A404D0FC0EE36F7F0E03D0AB
:1024F800F90EE36F7F0EE46FF60E0001CB6F7E0ED0
:10250800CC6FE3C1CDF0E4C1CEF060EC27F001015F
:10251800E551E611D8B417D0650E196E010E1A6E82
:10252800100E1B6E270E1C6E000E1D6E000E1E6E0A
:10253800100E1F6E270E206E000E216E000E226EEA
:1025480002EC1CF016D0650E196E010E1A6E400EC4
:102558001B6E9C0E1C6E000E1D6E000E1E6E100E65
:102568001F6E270E206E000E216E000E226E02ECEA
:102578001CF0360E0001CB6F7F0ECC6F60EC27F09D
:10258800650E276E010E286E050E296E010E2A6E45
:10259800000E2C6E010E2B6EECEC23F0A50E000144
:1025A800CB6F7F0ECC6F60EC27F0A7EC27F0D09EA6
:1025B800F28CF28E0400ABEC20F048EC26F01EEC16
:1025C8001BF086EC24F0000E0101E86F000EE76FA7
:1025D800030E0101E06F970EE82EFED7E02FFCD71F
:1025E80000D03EEC27F00101E74BE82BE8BFF0D71D
:1025F800E851E0E10A0EE75DD8B0DCD7E9D7020E72
:102608000D240F6E000E0E20106E0FC0F6FF10C0C6
:10261800F7FF0900920EF51862E109000F0EF51890
:10262800D8A45DD0040E0D240F6E000E0E20106E7F
:102638000FC0F6FF10C0F7FF0800F5A005D0000E88
:102648000E6E000E0D6E1200040E0D240F6E000E9D
:102658000E20106E0FC0F6FF10C0F7FF0800F5A29D
:1026680005D0000E0E6E010E0D6E1200040E0D2424
:102678000F6E000E0E20106E0FC0F6FF10C0F7FF91
:102688000800F5A405D0000E0E6E020E0D6E1200A5
:10269800040E0D240F6E000E0E20106E0FC0F6FFF4
:1026A80010C0F7FF0800F5A605D0000E0E6E030E49
:1026B8000D6E1200040E0D240F6E000E0E20106E0B
:1026C8000FC0F6FF10C0F7FF0800F5AA05D0000EEE
:1026D8000E6E040E0D6E12000D680E681200020ECA
:1026E8000D240F6E000E0E20106E0FC0F6FF10C0E6
:1026F800F7FF0900930EF518EFE109000F0EF51822
:10270800D8A4EAD7040E0D240F6E000E0E20106E0A
:102718000FC0F6FF10C0F7FF0800F5A005D0000EA7
:102728000E6E0C0E0D6E1200040E0D240F6E000EB0
:102738000E20106E0FC0F6FF10C0F7FF0800F5A2BC
:1027480005D0000E0E6E0A0E0D6E1200040E0D243A
:102758000F6E000E0E20106E0FC0F6FF10C0F7FFB0
:102768000800F5A405D0000E0E6E080E0D6E1200BE
:10277800040E0D240F6E000E0E20106E0FC0F6FF13
:1027880010C0F7FF0800F5A605D0000E0E6E090E62
:102798000D6E1200040E0D240F6E000E0E20106E2A
:1027A8000FC0F6FF10C0F7FF0800F5A895D7000E78
:1027B8000E6E0B0E0D6E120019C0D9FF1AC0DAFF8B
:1027C800DE50DE10D8B41200030E216E000E226E09
:1027D800000E236E000E246E20EE1EF01950D9262E
:1027E8001A50DA22DECF1BF0DDCF1CF0FF0E1B14CF
:1027F8001D6E0F0E1C141E6E1F6A206A030ED890E1
:102808001D361E361F362036E82EF9D71D502112E8
:102818001E5022121F5023122050241220EE1DF0A9
:102828001950D9261A50DA22DF501B6E030E1B16D8
:102838001BC01CF01D6A1E6A1F6A0F0ED8901C363A
:102848001D361E361F36E82EF9D71C5021121D5092
:1028580022121E5023121F50241220EE1CF0195071
:10286800D9261A50DA22DF501B6E010E1B161BC028
:102878001CF01D6A1E6A1F6A120ED8901C361D367F
:102888001E361F36E82EF9D71C5021121D50221271
:102898001E5023121F50241220EE1BF01950D92667
:1028A8001A50DA22DF501B6E010E1B161BC01CF0DB
:1028B8001D6A1E6A1F6A150ED8901C361D361E36F4
:1028C8001F36E82EF9D71C5021121D5022121E5017
:1028D80023121F50241220EE1AF01950D9261A502C
:1028E800DA22DF501B6E010E1B161BC01CF01D6A7E
:1028F8001E6A1F6A160ED8901C361D361E361F36E5
:10290800E82EF9D71C5021121D5022121E502312F6
:102918001F50241220EE19F01950D9261A50DA2225
:10292800DF501B6E010E1B161BC01CF01D6A1E6AB1
:102938001F6A170ED8901C361D361E361F36E82E15
:10294800F9D71C5021121D5022121E5023121F505D
:10295800241221C00DF022C00EF023C00FF024C0B5
:1029680010F0B8EC14F01200000E156E000E166E82
:10297800000E176E800E186E050EF66E7D0EF76E41
:102988000800F550FF0A116E010EF66E7D0EF76E07
:102998000900F5CF12F00900F5CF13F012C0D9FFE6
:1029A80013C0DAFF1150DF1600D079D015500D147E
:1029B800116E16500E14126E17500F14136E185015
:1029C8001014146E1150121013101410D8B418D01B
:1029D8000A0EF66E7D0EF76E0800F5CF11F0060EA2
:1029E800F66E7D0EF76E0900F5CF12F00900F5CFEF
:1029F80013F012C0D9FF13C0DAFF1150DF1218D03C
:102A08000A0EF66E7D0EF76E0800F550FF0A116E7D
:102A1800060EF66E7D0EF76E0900F5CF12F009006E
:102A2800F5CF13F012C0D9FF13C0DAFF1150DF162B
:102A380000D0050EF66E7D0EF76E0800F5CF11F08A
:102A4800010EF66E7D0EF76E0900F5CF12F0090043
:102A5800F5CF13F012C0D9FF13C0DAFF1150DF12FF
:102A680000D0050EF66E7D0EF76E0800F550FF0AD1
:102A7800116E010EF66E7D0EF76E0900F5CF12F09D
:102A88000900F5CF13F012C0D9FF13C0DAFF1150B7
:102A9800DF1600D0D890183217321632153215507A
:102AA800161017101810D8A481D70F0EF66E7D0EC9
:102AB800F76E0800F5CF11F00B0EF66E7D0EF76E6F
:102AC8000900F5CF12F00900F5CF13F012C0D9FFB5
:102AD80013C0DAFF1150DF1200D00F0EF66E7D0E14
:102AE800F76E0800F550FF0A116E0B0EF66E7D0E9C
:102AF800F76E0900F5CF12F00900F5CF13F012C0F8
:102B0800D9FF13C0DAFF1150DF16210EE82EFED7C9
:102B180000F012006AAE6B926ABE05D06A5008E1F6
:102B28006904D8B005D0000E396E010E386E04D095
:102B380069C038F06AC039F067C03AF068C03BF045
:102B480028C03CF029C03DF02AC03EF02BC03FF021
:102B58002CC040F02DC041F02EC042F02FC043F0F1
:102B6800000E456E1F0E446E000EB86F74D04406FA
:102B7800D8A045064450990FD96EDA6A3CC00DF0CA
:102B88003DC00EF03EC00FF03FC010F040C011F045
:102B980041C012F042C013F043C014F00A0E156E83
:102BA800000E166E000E176E000E186E000E196ECF
:102BB800000E1A6E000E1B6E000E1C6EC4EC1EF08A
:102BC8000DC030F00EC031F00FC032F010C033F03D
:102BD80011C034F012C035F013C036F014C037F00D
:102BE8003050300FDF6E3806D8A039063A06D8A024
:102BF8003B063CC00DF03DC00EF03EC00FF03FC09C
:102C080010F040C011F041C012F042C013F043C0B0
:102C180014F00A0E156E000E166E000E176E000EDA
:102C2800186E000E196E000E1A6E000E1B6E000E46
:102C38001C6E3DEC1DF00DC03CF00EC03DF00FC009
:102C48003EF010C03FF011C040F012C041F013C078
:102C580042F014C043F044504510D8B41AD03C5048
:102C68003D103E103F104010411042104310D8A4B0
:102C78007ED739BE05D0395002E13804D8B077D7AD
:102C88003BBE07D03B5003E13A04D8A002D06BB258
:102C98006ED726C018F027C019F04450990F1A6E45
:102CA8003AC01BF03BC01CF0F1EC20F018C026F035
:102CB80019C027F01200EB6F0001FE51EB19D8B4D0
:102CC8001200040EEB611200000EEA6F640EE96F49
:102CD800E4EC24F07A0ECB6F7F0ECC6FEB51040D31
:102CE800770EF324F66E7C0EF420F76E0900F5CF0C
:102CF800CDF00900F5CFCEF00900F5CFCFF00A00EE
:102D0800F5CFD0F060EC27F06B0ECB6F7F0ECC6F59
:102D1800EB51040D770EF324F66E7C0EF420F76E5B
:102D28000900F5CFE5F00900F5CFE6F00900F5CF89
:102D3800E7F00900F5CFE8F0E5510008CD6F9F0EE8
:102D4800E655CE6F240EE755CF6F000EE855D06FCD
:102D580060EC27F0650EDD6F010EDE6FEB51040DA0
:102D6800770EF324F66E7C0EF420F76E0900F5CF8B
:102D7800DFF00900F5CFE0F00900F5CFE1F00A0037
:102D8800F5CFE2F020EC24F0650E276E010E286ED8
:102D9800000E2A6E010E296EC9EC22F00CD0E9074C
:102DA800D8A0EA07030E0001E56F970EE82EFED7BC
:102DB800E52FFCD700D0650E0001D56F010ED66F48
:102DC80009EC23F0D551D611D8B4EABF05D0EA51A1
:102DD800E6E1E905D8B0E3D7EABF05D0EA510DE14D
:102DE800E905D8B00AD05A0ECB6F7F0ECC6F60ECD5
:102DF80027F0000E7CEC21F003D0010E7CEC21F0D2
:102E0800EBC0FEF01200000E1E6E1CAE12D01C1E8F
:102E18001B1E1A1E191E181E171E161E156C000ED4
:102E280016221722182219221A221B221C22010EEE
:102E38001E6E14AE12D0141E131E121E111E101E6A
:102E48000F1E0E1E0D6C000E0E220F2210221122D4
:102E5800122213221422010E1E1A20EE1FF0070E52
:102E6800DE6AE806FDE21550161017101810191042
:102E78001A101B101C10D8B446D0010E1D6E0AD0B3
:102E8800D890153616361736183619361A361B36B0
:102E98001C361D2A1CAEF4D7D8901F362036213692
:102EA8002236233624362536263615500D5C165024
:102EB8000E5817500F5818501058195011581A50CA
:102EC80012581B5013581C501458D8A011D0155024
:102ED8000D5E16500E5A17500F5A1850105A1950A6
:102EE800115A1A50125A1B50135A1C50145A1F8048
:102EF800D8901C321B321A32193218321732163255
:102F080015321D2EC9D71E50D8B410D0261E251E26
:102F1800241E231E221E211E201E1F6C000E20228E
:102F28002122222223222422252226221FC00DF01C
:102F380020C00EF021C00FF022C010F023C011F005
:102F480024C012F025C013F026C014F01200156E2C
:102F58001550D8A410AE1AD00DC011F00EC012F042
:102F68000FC013F010C014F0111E121E131E141EF1
:102F7800112A000E12221322142211C017F012C0B7
:102F880018F013C019F014C01AF008D00DC017F0CB
:102F98000EC018F00FC019F010C01AF00D500E1026
:102FA8000F101010D8A409D0000E0D6E000E0E6E72
:102FB800000E0F6E000E106E1200960E166E06D0E2
:102FC800162AD8901A32193218321732000E1714EE
:102FD800116E000E1814126E000E1914136EFE0EE8
:102FE8001A14146E1150121013101410D8B40DD0F6
:102FF800E7D7162A010E1726000E182219221A22C0
:10300800D8901A32193218321732000E1714116E6E
:10301800000E1814126E000E1914136EFF0E1A14F7
:10302800146E1150121013101410D8B407D0E1D731
:103038001606D8901736183619361A3619BE03D020
:10304800020E1660F5D716A0199ED890163216C033
:1030580011F0126A136A146A11C014F0136A126A22
:10306800116A1150171212501812135019121450D5
:103078001A121550D8A410AE01D01A8E17C00DF030
:1030880018C00EF019C00FF01AC010F0120020EE90
:10309800EDF010EE17F0060EDBCFE3FFE806FCE2DA
:1030A80014C022F015C023F022502310D8A403D056
:1030B800170E226E236A22C00DF023C00EF08AEC90
:1030C80026F00DC026F00EC027F069C024F06AC0B3
:1030D80025F025BE0ED02650245C2550800A166E99
:1030E8002750800A1658D8B004D024C026F025C02E
:1030F80027F026C024F027C025F067C020F068C05C
:1031080021F06BA00DD016D0000E0F6E200E0E6EA3
:1031180012C010F013C011F07CEC27F0264A272AC1
:103128002050265C2750800A166E2150800A1658B7
:10313800D8A0EAD7000E1F6E000E1E6E1ED022C049
:10314800F6FF23C0F7FFF86A050EF76403D00800FE
:10315800F55005D0F6CFE1FFF7CFE2FFE750166E46
:1031680016500E6E0F6A12C010F013C011F07CECEE
:1031780027F0224A232A1E4A1F2A24501E5C1F5069
:10318800800A166E2550800A1658D8A0D8D76BB07A
:103198000DD016D0000E0F6E200E0E6E12C010F05D
:1031A80013C011F07CEC27F0264A272A2050265C11
:1031B8002750800A166E2150800A1658D8A0EAD7E0
:1031C80026C012F027C013F012000DC017F00EC071
:1031D80018F011501210D8B4120017C0D9FF18C037
:1031E800DAFF0FC0DFFF11501724136E125018209A
:1031F800146EFF0E1324D96EFF0E1420DA6E0FC062
:10320800DFFF125004E1030E115CD8A0120020EE7B
:1032180001F01750D9261850DA220FC0DFFF20EE30
:1032280002F01750D9261850DA220FC0DFFF1150CC
:103238001724136E12501820146EFE0E1324D96E24
:10324800FF0E1420DA6E0FC0DFFF11501724136E23
:1032580012501820146EFD0E1324D96EFF0E142080
:10326800DA6E0FC0DFFF125004E1070E115CD8A020
:10327800120020EE03F01750D9261850DA220FC09A
:10328800DFFF11501724136E12501820146EFC0E15
:103298001324D96EFF0E1420DA6E0FC0DFFF125010
:1032A80004E1090E115CD8A0120017C013F018C071
:1032B80014F0131E141E134A142A030E1314156E49
:1032C800166A15501726165018221550115E1650FA
:1032D800125AFC0E1116FF0E12160BD017C0D9FF8A
:1032E80018C0DAFF0FC0DFFF1106D8A01206174A70
:1032F800182A11501210D8B41200F0D7000E1E6E02
:1033080014AE12D0141E131E121E111E101E0F1EF4
:103318000E1E0D6C000E0E220F22102211221222F8
:1033280013221422010E1E6E1CAE10D01C1E1B1E72
:103338001A1E191E181E171E161E156C000E1622B0
:103348001722182219221A221B221C221550161085
:103358001710181019101A101B101C10D8B43CD0D4
:10336800010E1D6E0AD0D890153616361736183647
:1033780019361A361B361C361D2A1CAEF4D71550C2
:103388000D5C16500E5817500F58185010581950F9
:1033980011581A5012581B5013581C501458D8A0C2
:1033A80010D015500D5E16500E5A17500F5A18505F
:1033B800105A1950115A1A50125A1B50135A1C50AD
:1033C800145AD8901C321B321A321932183217325A
:1033D800163215321D2ED3D71E50D8B410D0141E55
:1033E800131E121E111E101E0F1E0E1E0D6C000E37
:1033F8000E220F22102211221222132214220DC093
:103408000DF00EC00EF00FC00FF010C010F011C07C
:1034180011F012C012F013C013F014C014F012000F
:103428001B501D6E1C501E6E1F6A206A5C0E1D24E8
:103438000D6EFE0E1E200E6EFF0E1F200F6EFF0E6D
:103448002020106E280E116E000E126E000E136EE4
:10345800000E146E3DEC25F00DC021F00EC022F0D8
:103468000FC023F010C024F021C00DF022C00EF0D0
:1034780023C00FF024C010F07C0E116E060E126EE1
:10348800000E136E000E146EA4EC1DF00DC021F09A
:103498000EC022F00FC023F010C024F021C08FF01E
:1034A800010E0001966F24BE0AD02450231022106A
:1034B80004E10B0E215CD8A002D0020E966F24BE48
:1034C8000AD024502310221004E1150E215CD8A044
:1034D80002D0030E966F24BE0AD024502310221067
:1034E80004E11C0E215CD8A002D0040E966F24BE05
:1034F8000AD024502310221004E11F0E215CD8A00A
:1035080002D0050E966F24BE0AD024502310221034
:1035180004E1220E215CD8A002D0060E966F24BECC
:10352800120024502310221004E1250E215CD8A09B
:103538001200070E966F120019C0D9FF1AC0DAFFE1
:10354800DE50DE10D8B41200010E216E000E226E7D
:10355800000E236E000E246E20EE09F01950D926B5
:103568001A50DA22DECF1BF0DDCF1CF0FF0E1B1441
:103578001D6E0F0E1C141E6E1F6A206A030ED89053
:103588001D361E361F362036E82EF9D71D5021125B
:103598001E5022121F5023122050241220EE07F032
:1035A8001950D9261A50DA22DECF1BF0DDCF1CF0D5
:1035B800FF0E1B141D6E0F0E1C141E6E1F6A206A50
:1035C8000F0ED8901D361E361F362036E82EF9D736
:1035D8001D5021121E5022121F5023122050241257
:1035E80020EE06F01950D9261A50DA22DF501B6E49
:1035F800010E1B161BC01CF01D6A1E6A1F6A1B0EDB
:10360800D8901C361D361E361F36E82EF9D71C50AA
:1036180021121D5022121E5023121F50241221C0A5
:103628000DF022C00EF023C00FF024C010F0B8EC4B
:1036380014F01200000EE16F320EE06F010E966575
:1036480003D0D890E133E0338851DD6F8951DE6FC4
:10365800884B892BE051DD5DE151DE59D8A050D06F
:103668009151D8A430D0010E916F010E96650AD001
:10367800922B9251965DD8B005D0000E926F010E34
:10368800906F12009051D8B405D0902F35D0000E0D
:10369800926F32D0D80EF66E7C0EF76E0800F55099
:1036A800FF0ADD6FD40EF66E7C0EF76E0900F5CFBB
:1036B800DEF00900F5CFDFF0DEC0D9FFDFC0DAFFAA
:1036C800DD51DF1619D0000E916FD80EF66E7C0E04
:1036D800F76E0800F5CFDDF0D40EF66E7C0EF76EAF
:1036E8000900F5CFDEF00900F5CFDFF0DEC0D9FF25
:1036F800DFC0DAFFDD51DF12000E896F000E886F20
:10370800650ED56F010ED66F09EC23F0D551D61191
:10371800D8A404D0000E7CEC21F01200010E7CEC41
:1037280021F01200000E186E000E176E125065E19F
:10373800810E0F5C230E1058430E1158D8B012009A
:1037480007D0D8900F36103611361236174A182A75
:10375800125010E1C10E0F5C910E1058210E115835
:10376800D8B008D018BEEDD7185004E1050E175C84
:10377800D8A0E7D7125008E1C10E0F5C910E10587F
:10378800210E1158D8A0120018BE06D0185035E1E5
:10379800050E175CD8B0120020EE33F00D50D92674
:1037A8000E50DA220FC0DEFF10C0DEFF11C0DEFFB0
:1037B80012C0DEFF20EE06F00D50D9260E50DA2298
:1037C80010EE33F00D50E1260E50E222030EE350C6
:1037D80008E1810EE65CEE0EE658360EE658D8A0F3
:1037E80002D0010E01D0000EDF6E20EE21F00D5048
:1037F800D9260E50DA2217C0DFFF120019C00DF0CB
:103808001AC00EF0000E106E000E0F6E000E126E33
:10381800370E116EE9EC18F019C0D9FF1AC0DAFF9B
:10382800010EDE6E000EDD6E20EE2BF01950D9264B
:103838001A50DA221BC0DEFF1CC0DEFF1DC0DEFFEF
:103848001EC0DEFF20EE2FF01950D9261A50DA22BA
:103858001FC0DEFF20C0DEFF21C0DEFF22C0DEFF6A
:103868000F0EF66E7D0EF76E0800F550FF0A236EF8
:103878000B0EF66E7D0EF76E0900F5CF24F00900E9
:10388800F5CF25F024C0D9FF25C0DAFF2350DF1675
:10389800140EF66E7D0EF76E0800F5CF23F0100EAD
:1038A800F66E7D0EF76E0900F5CF24F00900F5CF0E
:1038B80025F024C0D9FF25C0DAFF2350DF1219C034
:1038C8000DF01AC00EF0C5EC1FF0420EE82EFED720
:1038D80000D01200000E0D14156E000E0E14166E98
:1038E800800E0F14176E7F0E1014186E15501610D8
:1038F80017101810D8A408D0000E0D6E000E0E6E0A
:10390800000E0F6E000E106E000E1114156E000ED4
:103918001214166E800E1314176E7F0E1414186E80
:103928001550161017101810D8A408D0000E116ED4
:10393800000E126E000E136E000E146E10AE09D03B
:103948000D6C0E1ED8B00E2A0F1ED8B00F2A800E8E
:10395800105614AE09D0116C121ED8B0122A131EBC
:10396800D8B0132A800E1456000E0D1A000E0E1A27
:10397800000E0F1A800E101A000E111A000E121ADD
:10398800000E131A800E141A11500D5C12500E58A6
:1039980013500F5814501058D8B002D0D8901200B5
:1039A800D880120045D016C01EF017C01FF018C0EE
:1039B80020F019C021F01A50165C1B5017581C50E3
:1039C80018581D501958D8B011D01AC016F01BC07D
:1039D80017F01CC018F01DC019F01EC01AF01FC047
:1039E8001BF020C01CF021C01DF022D01AC016F018
:1039F8001BC017F01CC018F01DC019F01EC00DF038
:103A08001FC00EF020C00FF021C010F01AC011F036
:103A18001BC012F01CC013F01DC014F053EC24F0AE
:103A28000DC01AF00EC01BF00FC01CF010C01DF026
:103A380016C00DF017C00EF018C00FF019C010F026
:103A48001AC011F01BC012F01CC013F01DC014F0F6
:103A580053EC24F00D500E100F101010D8A4A3D75B
:103A68001AC016F01BC017F01CC018F01DC019F0C2
:103A7800120020EE1DF0070EDE6AE806FDE2155082
:103A880016101710181019101A101B101C10D8B483
:103A980046D0010E256E0AD0D89015361636173640
:103AA800183619361A361B361C36252A1CAEF4D79A
:103AB800D8901D361E361F3620362136223623363C
:103AC800243615500D5C16500E5817500F581850C4
:103AD8001058195011581A5012581B5013581C508E
:103AE8001458D8A011D015500D5E16500E5A175004
:103AF8000F5A1850105A1950115A1A50125A1B506E
:103B0800135A1C50145A1D80D8901C321B321A327A
:103B180019321832173216321532252EC9D71DC060
:103B28000DF01EC00EF01FC00FF020C010F021C015
:103B380011F022C012F023C013F024C014F01200B8
:103B4800000E166E14AE0AD0141E131E121E116C2F
:103B5800000E122213221422010E166E10AE0AD085
:103B6800101E0F1E0E1E0D6C000E0E220F221022AC
:103B7800010E161A000E176E000E186E000E196E42
:103B8800000E1A6E1150121013101410D8B42AD047
:103B9800010E156E06D0D89011361236133614362B
:103BA800152A14AEF8D7D8901736183619361A369B
:103BB80011500D5C12500E5813500F5814501058D5
:103BC800D8A009D011500D5E12500E5A13500F5A3A
:103BD8001450105A1780D8901432133212321132FE
:103BE800152EE1D71650D8B408D01A1E191E181E63
:103BF800176C000E182219221A2217C00DF018C0CF
:103C08000EF019C00FF01AC010F012002834293431
:103C18002F6E2F50D8A409D0000E266E000E276EE6
:103C2800000E286E000E296E120026C02AF027C04A
:103C38002BF028C02CF029C02DF0200E05D0D890EC
:103C48002D322C322B322A32E82EF9D72A502E6EFA
:103C5800288EFF0E2616FF0E2716FF0E2816000EBA
:103C68002916960E2F5E2FAE0DD02F50800A970F73
:103C7800D8A0D2D7D89029322832273226322F3EE0
:103C8800F9D70DD01F0E2F6407D0C6D7D890263687
:103C98002736283629362F062F50D8A4F7D72E5086
:103CA800D8B408D0291E281E271E266C000E2722ED
:103CB8002822292226C026F027C027F028C028F06D
:103CC80029C029F0120019C0D9FF1AC0DAFFDE5046
:103CD800DE10D8B41200000E216E000E226E000E07
:103CE800236E000E246E20EE04F01950D9261A50C7
:103CF800DA22DECF1BF0DDCF1CF0FF0E1B141D6E89
:103D08000F0E1C141E6E1F6A206A030ED8901D36F3
:103D18001E361F362036E82EF9D71D5021121E50A8
:103D280022121F5023122050241220EE02F01950A4
:103D3800D9261A50DA22DECF1BF0DDCF1CF01B503B
:103D48001D6E1C501E6E1F6A206A0F0ED8901D36FD
:103D58001E361F362036E82EF9D71D5021121E5068
:103D680022121F5023122050241221C00DF022C00D
:103D78000EF023C00FF024C010F0B8EC14F01200BD
:103D8800155016101710181019101A101B101C10A7
:103D9800D8B43CD0010E1D6E0AD0D8901536163610
:103DA8001736183619361A361B361C361D2A1CAE1D
:103DB800F4D715500D5C16500E5817500F58185060
:103DC8001058195011581A5012581B5013581C509B
:103DD8001458D8A010D015500D5E16500E5A175012
:103DE8000F5A1850105A1950115A1A50125A1B507B
:103DF800135A1C50145AD8901C321B321A321932DA
:103E080018321732163215321D2ED3D70DC00DF0C9
:103E18000EC00EF00FC00FF010C010F011C011F05E
:103E280012C012F013C013F014C014F01200666E22
:103E38003AD04F0E6618D8A41200972B12004C0ED9
:103E48006618D8B4FAD7000E976F1200440EF8D748
:103E5800200E6618D8A4F7D7000E986FEED7630E19
:103E6800986501D0F0D7000E9825D96EDA6A010E50
:103E7800DA2266C0DFFF982B0A0E6618D8A4120053
:103E8800000E9825D96EDA6A010EDA22000EDF6E6E
:103E9800D80ECB6F7F0ECC6F000ECD6F010ECE6F9C
:103EA80060EC27F0D0D700019751D56FD66BD6516B
:103EB800000AD8A41200D551000AD8B4BAD7010A0A
:103EC800D8B4BDD7030AD8B4C1D7010AD8B4C0D76B
:103ED800070AD8A41200C3D70DC014F00EC015F0FD
:103EE8000FC016F010C017F01106D8A0120611283E
:103EF8000FE11228D8A40CD0000E0E6E000E0D6E25
:103F08001200144A152A164A172A1106D8A01206B2
:103F180014C0F6FF15C0F7FF0800F5500009D8B423
:103F28001DD016C0F6FF17C0F7FF0800F5500009AE
:103F3800D8B414D011501210D8B410D014C0F6FF51
:103F480015C0F7FF0800F5CF13F016C0F6FF17C02D
:103F5800F7FF0800F5501318D8B4D3D714C0F6FFEC
:103F680015C0F7FF0800F5CF13F016C0F6FF17C00D
:103F7800F7FF0800F550135C0D6E0E6AD8A00E0608
:103F8800120020EE07F00D50D9260E50DA22010E4D
:103F9800DE6E000EDD6E20EE0CF00D50D9260E50B0
:103FA800DA22060EDF6E20EE12F00D50D9260E50E2
:103FB800DA22070EDF6E20EE0BF00D50D9260E50D8
:103FC800DA22030EDF6E20EE15F00D50D9260E50C2
:103FD800DA22010EDF6E20EE20F00D50D9260E50A9
:103FE800DA22010EDF6E20EE28F00D50D9260E5091
:103FF800DA22000EDF6E20EE29F00D50D9260E5081
:10400800DA22030EDF6E20EE23F00D50D9260E5073
:10401800DA22010EDF6E20EE2AF00D50D9260E505E
:10402800DA22010EDF6E12004C0EF66E4C0EF76EA1
:10403800000EF86E01EE9CF010EE44F00900F5CF8A
:10404800EEFFE550E150FAE13A0EF66E4F0EF76ECC
:10405800000EF86E00EEEDF010EE13F00900F5CF4B
:10406800EEFFE550E150FAE1680EF66E4F0EF76E7E
:10407800000EF86E0900F5CF72F002EE00F011EEB6
:1040880000F0EE6AE550E150FCE1E250FAE101EEA1
:1040980000F09C0EEE6AE806FDE100EE80F0390EB5
:1040A800EE6AE806FDE100EE67F00B0EEE6AE80640
:1040B800FDE173907392000EF86E000106EF12F0A6
:1040C800666E66C095F00001FC516618D8B40BD036
:1040D800C10ECB6F7F0ECC6F66C0CDF0CE6B60EC9F
:1040E80027F066C0FCF06650D8B419D0CE0EF66E34
:1040F8007C0EF76E0800F550FF0AD56FCA0EF66EF3
:104108007C0EF76E0900F5CFD6F00900F5CFD7F091
:10411800D6C0D9FFD7C0DAFFD551DF161200CE0EB0
:10412800F66E7C0EF76E0800F5CFD5F0CA0EF66E67
:104138007C0EF76E0900F5CFD6F00900F5CFD7F061
:10414800D6C0D9FFD7C0DAFFD551DF12120000015F
:10415800864B872B875104E1640E865DD8A02AD050
:10416800F9EC10F00A0E93651DD00F0ECB6F7E0E82
:10417800CC6F93C0CDF0CE6B60EC27F0DB0ECB6F2D
:104188007E0ECC6F60EC27F0650E276E010E286E50
:10419800050E296E010E2A6E000E2C6E010E2B6E76
:1041A800ECEC23F0000E0001936F000E876F000EF9
:1041B800866F1200650ED56F010ED66F09EC23F0DD
:1041C800D551666E6650D8B404D094516618D8B4E8
:1041D800120066C094F0932B12006BA008D01AC08E
:1041E80012F018C013F019C014F0CBEC26F01CBE66
:1041F80005D01BC020F01CC021F004D0000E216E99
:10420800000E206E000E1F6E000E1E6E0CD0000EEB
:104218000F6E200E0E6E18C010F019C011F07CEC55
:1042280027F01E4A1F2A20501E5C1F50800A1D6E50
:104238002150800A1D58D8A0EAD76BB008D01AC000
:1042480012F018C013F019C014F0CBEC26F01AC005
:104258000DF00E6A8AEC26F020500D24186E2150BD
:104268000E20196E120093EC27F00009D8A4120052
:10427800F5BF09D0F55103E1F405D8A004D0F4073F
:10428800D8A0F5071200F451F511D8A41200F407CC
:10429800D8A0F507C40EF66E7C0EF76E0800F5CFB1
:1042A800D8F0C00EF66E7C0EF76E0900F5CFD9F087
:1042B8000900F5CFDAF0D9C0D9FFDAC0DAFFD85152
:1042C800DF12010E64EC20F0060E0001D86F300EEC
:1042D800E82EFED7D82FFCD700F0650E256E010E0C
:1042E800266E000E286E010E276E69EC26F012006D
:1042F800666E0001FD516618D8B40BD0B30ECB6FB3
:104308007F0ECC6F66C0CDF0CE6B60EC27F066C038
:10431800FDF06650D8B419D0D30EF66E7C0EF76E49
:104328000800F550FF0AD56FCF0EF66E7C0EF76EBB
:104338000900F5CFD6F00900F5CFD7F0D6C0D9FFE0
:10434800D7C0DAFFD551DF161200D30EF66E7C0EF9
:10435800F76E0800F5CFD5F0CF0EF66E7C0EF76E2F
:104368000900F5CFD6F00900F5CFD7F0D6C0D9FFB0
:10437800D7C0DAFFD551DF121200000E0D14156EEA
:10438800000E0E14166E800E0F14176E7F0E10148A
:10439800186E1550161017101810D8A408D0000E53
:1043A8000D6E000E0E6E000E0F6E000E106E000EDB
:1043B8001114156E000E1214166E800E1314176E5B
:1043C8007F0E1414186E1550161017101810D8A454
:1043D80008D0000E116E000E126E000E136E000E45
:1043E800146E11500D180AE112500E1807E11350FF
:1043F8000F1804E114501018D8B402D0D890120045
:10440800D8801200000E126E10AE06D00F6C101E6F
:10441800D8B0102A010E126E0EAE06D00D6C0E1E0C
:10442800D8B00E2A010E121A000E146E000E136E6A
:104438000F501010D8B41CD0010E116E04D0D890B3
:104448000F361036112A10AEFAD7D8901336143614
:104458000F500D5C10500E58D8A005D00F500D5EAF
:1044680010500E5A1380D89010320F32112EEDD7FB
:104478001250D8B404D0136C141ED8B0142A13C028
:104488000DF014C00EF01200000E156E000E166E20
:10449800000E176E000E186E115012101310141023
:1044A800D8B42AD0010E196E06D0D890113612361B
:1044B80013361436192A14AEF8D7D890153616368E
:1044C8001736183611500D5C12500E5813500F58ED
:1044D80014501058D8A009D011500D5E12500E5A21
:1044E80013500F5A1450105A1580D89014321332A2
:1044F80012321132192EE1D715C00DF016C00EF088
:1045080017C00FF018C010F01200E20EF66E7C0E05
:10451800F76E0800F5CF0DF0DE0EF66E7C0EF76E26
:104528000900F5CF0EF00900F5CF0FF00EC0D9FF46
:104538000FC0DAFFDF500D140009D8A402D0010E15
:1045480001D0000E106EDD0EF66E7C0EF76E0800C0
:10455800F5CF0DF0D90EF66E7C0EF76E0900F5CF8B
:104568000EF00900F5CF0FF00EC0D9FF0FC0DAFF2B
:10457800DF500D140009D8A402D0010E01D0000E9E
:10458800116E115011241010120027C0D9FF28C035
:10459800DAFFDE50DE10D8B4120029502A10D8B441
:1045A80017D020EE23F02750D9262850DA22000E03
:1045B800DF6E20EE16F02750D9262850DA22000E9A
:1045C800DF6E27C025F028C026F0DEEC25F01200AB
:1045D80020EE23F02750D9262850DA22010EDF6E6C
:1045E80020EE16F02750D9262850DA22010EDF6E69
:1045F80027C019F028C01AF036EC0CF027C019F0C3
:1046080028C01AF01CEC06F01200190EF66E7D0E8A
:10461800F76E0800F5CFD7F0150EF66E7D0EF76E23
:104628000900F5CFD8F00900F5CFD9F0D8C0D9FFE7
:10463800D9C0DAFFDF50D7150009D8B402D0010E6F
:1046480001D0000EDC6FFF51DC19D8B417D0DC5153
:10465800D8A404D0CF0EDA6F7F0E03D0D10EDA6F54
:104668007F0EDB6F0D0ECB6F7F0ECC6FDAC0CDF0F7
:10467800DBC0CEF060EC27F0DCC0FFF0DCC0D5F08A
:10468800D66B120019C0D9FF1AC0DAFFDE50DE104F
:10469800D8B41200050E206E000E216E000E226E98
:1046A800000E236E20EE2AF01950D9261A50DA226D
:1046B800DF501B6E030E1B161BC01CF01D6A1E6A02
:1046C8001F6A160ED8901C361D361E361F36E82E69
:1046D800F9D71C5020121D5021121E5022121F50B3
:1046E800231220C00DF021C00EF022C00FF023C00D
:1046F80010F0B8EC14F0120019C011F01AC012F042
:1047080011EC25F011C01DF012C01EF01F6A206ABE
:104718001DC00DF01EC00EF01FC00FF020C010F01D
:10472800E40E116E0C0E126E000E136E000E146E57
:104738003DEC25F00B0E05D0D89010320F320E321A
:104748000D32E82EF9D70DC021F00EC022F00FC0AF
:1047580023F010C024F021C019F022C01AF023C0A1
:104768001BF024C01CF01200200E0D6E4B0E0E6EB6
:10477800000E0F6E000E106E000EE5EC26F0AC9CDD
:10478800AC96AC84AC8AAB9CAB88AB96B886B89038
:10479800800E0D6E840E0E6E1E0E0F6E000E106EC5
:1047A8001AC011F01BC012F01CC013F01DC014F089
:1047B80048EC22F0FF0E0D241E6EFF0E0E201F6E19
:1047C8001FC0B0FF1EC0AFFFAC98AB8E9D8A120011
:1047D8002B502C10D8A404D0000E2E6E030E03D03C
:1047E800000E2E6E000E2D6E20EE0BF02750D926EF
:1047F8002850DA222DC0DFFF20EE12F02750D926EC
:104808002850DA2229C0DFFF20EE29F02750D926C8
:104818002850DA222AC0DFFF20EE23F02750D926BD
:104828002850DA22DF50D8A4120027C025F028C06B
:1048380026F0DEEC25F01200DDC0D9FFDEC0DAFF7D
:10484800DE50DE10D8B41200DDC00DF0DEC00EF070
:10485800DFC00FF0E0C010F0E1C011F0E2C012F0CC
:1048680096EC1BF0DDC0D5F0DEC0D6F0E5EC0AF022
:10487800DDC022F0DEC023F0E2EC0FF0000120EEF4
:1048880023F0DD51D926DE51DA22DF50D8A41200F8
:10489800DDC025F0DEC026F0DEEC25F01200115058
:1048A800121013101410D8B424D0010E156E06D0AF
:1048B800D8901136123613361436152A14AEF8D796
:1048C80011500D5C12500E5813500F5814501058B8
:1048D800D8A008D011500D5E12500E5A13500F5A1E
:1048E8001450105AD8901432133212321132152E35
:1048F800E7D70DC00DF00EC00EF00FC00FF010C0BE
:1049080010F0120093EC27F00009D8B403D0E4ECBF
:1049180024F01200650ED56F010ED66F09EC23F056
:10492800D551D611D8B4F3D7FB0EF66E7C0EF76EC0
:104938000800F5CFDDF0F70EF66E7C0EF76E090075
:10494800F5CFDEF00900F5CFDFF0DEC0D9FFDFC01C
:10495800DAFFDF50DD150009D8A4D9D737EC21F0EC
:1049680012000600FACF08F0FBCF09F0D9CF0AF001
:10497800DACF0BF09EAA15D0000180518111D8B46E
:1049880010D082C001F083C002F001D80AD005001F
:10499800FA6E8051FD6E8151FE6EF850FF6EFA502E
:1049A8001200F2A003D081CF0CF0F2900BC0DAFF16
:1049B8000AC0D9FF09C0FBFF08C0FAFF73921100B3
:1049C800F5AF26D0650E256E010E266E000E286EF8
:1049D800000E276E69EC26F0C40EF66E7C0EF76E9C
:1049E8000800F550FF0A0001D86FC00EF66E7C0E65
:1049F800F76E0900F5CFD9F00900F5CFDAF0D9C084
:104A0800D9FFDAC0DAFFD851DF16000E64EC20F0C7
:104A1800000EF56F0A0EF46F120011C00DF012C0EF
:104A28000EF003EC13F00DC017F00EC018F018BE0E
:104A38001BD0F00EC11617C013F013461346C25010
:104A48001318C30B1318C26EC282C2B2FED70F0E60
:104A5800C112C450136EC350156E13C016F015C0A2
:104A680011F016C012F01200000E126E000E116E38
:104A78001200000E156E000E166E000E176E000E58
:104A8800186E0DA008D0115015261250162213507A
:104A9800172214501822D8901136123613361436AD
:104AA800D89010320F320E320D320D500E100F10FA
:104AB8001010D8A4E6D715C00DF016C00EF017C018
:104AC8000FF018C010F0120011C00DF012C00EF057
:104AD80003EC13F00EBE1200040E1124136E000E28
:104AE8001220146E13C0F6FF14C0F7FF0800F5CFAC
:104AF80015F0020E1124166E000E1220176E16C045
:104B0800F6FF17C0F7FF0900F5CFD9FF0900F5CF69
:104B1800DAFF1550DF121200B8AC1200AECF05F064
:104B2800ABB41200ABA203D0AB98AB881200010E55
:104B38006D24036E000E6E20046E0350066E076A25
:104B48006F50061804E170500718D8B41200000E10
:104B58006D24D96E020E6E20DA6E05C0DFFF06C026
:104B68006DF007C06EF012005EC061F05FC062F0C9
:104B7800000E856F000E846F0FD05CC04BF05DC0D7
:104B88004CF0610E4D6E60C04EF079EC02F04B5067
:104B9800000184274C50852361C0F6FF62C0F7FFEF
:104BA8000800F5500009D8A4E8D784C05CF085C097
:104BB8005DF0120025C019F026C01AF046EC23F06B
:104BC80025C019F026C01AF036EC0CF025C019F0F3
:104BD80026C01AF0E0EC13F025C019F026C01AF030
:104BE8001CEC06F025C019F026C01AF0A0EC1AF04B
:104BF80025C019F026C01AF067EC1EF01200000E4E
:104C0800211A000E221A000E231A800E241A1DC023
:104C18000DF01EC00EF01FC00FF020C010F021C014
:104C280011F022C012F023C013F024C014F05FEC7E
:104C380009F00DC01DF00EC01EF00FC01FF010C00F
:104C480020F0120000C0CB440040D7440040F0449C
:104C58000000024500500C45001017450050224541
:104C680000102E4500403A4500E0464500005445F6
:104C78000070614500906E4500807A45003082459D
:104C880000C08545000080BF89EC22F0EC6F7250AF
:104C9800EC19D8B407D0ECC072F0000EFB6F0A0E06
:104CA800FA6F1200FBBF09D0FB5103E1FA05D8A047
:104CB80004D0FA07D8A0FB071200FA51FB11D8A4B8
:104CC800120072505FEC16F0E8D727502810D8B4BD
:104CD80008D020EE28F02550D9262650DA22010ED9
:104CE80007D020EE28F02550D9262650DA22000ECB
:104CF800DF6E25C019F026C01AF036EC0CF025C07E
:104D080019F026C01AF01CEC06F012000DC00FF0C6
:104D18000EC010F002D00D4A0E2A0DC0F6FF0EC0CC
:104D2800F7FFF86A050EF76403D00800F55005D0C0
:104D3800F6CFE1FFF7CFE2FFE7500009D8A4EBD7A1
:104D48000F500D5C0D6E10500E580E6E12006F5005
:104D58006D1804E170506E18D8B4F9D7000E6F249E
:104D6800D96E020E7020DA6EDF500F6E0F50116E82
:104D7800126A010E6F240F6E000E7020106E0F5015
:104D88006F6E706A11C00DF012C00EF01200000EA6
:104D9800176E000E166E0BD015C00EF00F6A13C0FA
:104DA80010F014C011F07CEC27F0164A172A1250A4
:104DB8001624D96EDA6ADF50156E1550D8B4120071
:104DC800EBD7116E1150D8A412001150040DF350F6
:104DD800820FD96EDA6A0FC0DEFF10C0DDFF1150F6
:104DE800040DF350800FD96EDA6A0DC0DEFF0EC0D5
:104DF800DDFF120020BE05D0205010E11F04D8B0FE
:104E08000DD01FC021F020C022F0211E221E214AF1
:104E1800222A21C01FF022C020F012001FC01FF05C
:104E280020C020F01200E30E196E7C0E1A6E80EC82
:104E380023F019C027F01AC028F01BC029F01CC0A5
:104E48002AF0D8902734256E2834266E1200E80EF2
:104E5800196E7C0E1A6E80EC23F019C027F01AC068
:104E680028F01BC029F01CC02AF027C025F028C054
:104E780026F012006FEC27F00D500E10D8B4120077
:104E8800ABEC26F00DC0D7F00EC0D8F00001D7511A
:104E98001BEC1FF01200F20E196E7C0E1A6E80ECDD
:104EA80023F019C03FF01AC040F06DEC04F03FC089
:104EB8005BF040C05CF01200CD0E656E000E5C6EBB
:104EC800000E5D6ECBC05EF0CCC05FF0650E606E0C
:104ED800B8EC25F012006F506D1804E170506E1890
:104EE800D8B402D0010E01D0000E0D6E0E6A120069
:104EF8000A0E0E180F10D8A403D00D0EAEEC27F032
:104F08000E50AEEC27F01200C19AC1980F0EC112D4
:104F1800C08E380EC012070EC012C28012008E5109
:104F2800D8A403D08C51D8B402D0010E1200000EC0
:104F38001200286E756C6C29000A00010005000A31
:054F480000FFFFFFFF68
:104F4E0089EC22F0726E72505FEC16F012000D6E4C
:0B4F5E00ACA2FED70DC0ADFF1200FF9B
:107C760000500F1E00C8FB1D00D0F41700F0EF10D7
:107C860000BB7CB17CB67CC57CD47CD97CDE7CF721
:107C96007CCA7CCF7CC07CFC7CED7CE87CE37CF2FF
:107CA6007C067D017D157D107D0B7D820F940F80F6
:107CB600820F940F40820F940F20820F940F108230
:107CC6000F940F08820F940F04820F940F02820FF5
:107CD600940F01810F930F20810F930F10810F9343
:107CE6000F08810F930F04810F930F02810F930FDB
:107CF60001800F920F80800F920F40800F920F101D
:107D0600800F920F08800F920F04800F920F02804F
:107D16000F920F01414446343335313A2043616EA8
:107D26006E6F7420726561636820504644206F66EA
:107D3600202569206B487A20776974682052454669
:107D4600206F66202569206B487A20286E6F742084
:107D560064697669646561626C65292E0A0041442E
:107D660046343335313A2043616E6E6F7420726546
:107D760061636820504644206F66202569206B4861
:107D86007A207769746820524546206F66202569F7
:107D9600206B487A202864697620746F6F206869A2
:107DA6006768292E0A00414446343335313A204368
:107DB600616E6E6F742075736520706664206F66E1
:107DC60020256C75206B487A202862736364697677
:107DD60020746F6F2068696768292E0A0055504322
:107DE60020303020303720414D5341542D444C2013
:107DF6005570636F6E7665727465722048573A25C2
:107E0600732046573A25730A0041444634333531C8
:107E16002052452D494E495449414C495A452C203A
:107E2600756E6C6F636B5F636E743A25640D0A0042
:107E36000A414D53415420444C205570436F6E7691
:107E460065727465722048573A25732046573A255D
:107E5600730A0A00555043203030203132207375A2
:107E660070706C7920766F6C74616765204F4B205B
:107E76002564206D560A006F7665722074656D70F4
:107E86006572617475726520616C61726D3A202548
:107E96007320543D25640A0055504320303020316C
:107EA6003220756E64657220766F6C74616765202A
:107EB6002564206D560A005550432030302031335A
:107EC600206F76657220766F6C7461676520256415
:107ED600206D560A0055504320303020303820415E
:107EE6004446343335312052652D496E69740A0093
:107EF6004144463433353120494E495420282573B0
:107F06004D487A290D0A005550432030302030392B
:107F160020414446343335312025730A00555043F9
:107F260020303020313120257320543D25640A004D
:107F360041444634333531205345542054554E453B
:107F46000D0A005550432030302030322025642061
:107F560025640A006C6F636B2074696D6564206F1D
:107F66007574210A005550432030302031302025C9
:107F76006C640A0055504320303020303520256C83
:107F8600640A005550432030302030302025640AE2
:107F9600005550432030302030312025640A0049F6
:107FA6004E4954205357495443480D0A00555043EF
:107FB6002030302030342025640A005550432030CC
:107FC600302030362025640A00554E4C4F434B4531
:107FD60044004F4C442025730056312E3000563451
:107FE6002E32004F4646006C64006C69006C7500CA
:0A7FF6004F4E00313000343000001F
:020000040020DA
:08000000FFFFFFFFFFFFFFFF00
:020000040030CA
:0E000000FF081F11FF0381FF0FC00FE00F402C
:00000001FF
